S022000046696E616C2050726F6A65637420666F7220456D6265646465642E7372656390
S11300000C94B2070C94FA080C9429090C94CF07A9
S11300100C94CF070C9458090C94CF070C94C8087F
S11300200C94CF070C94CF070C94CF070C94CF07F4
S11300300C94CF070C94CF070C9403130C94CF07A4
S11300400C94CF070C94CF070C94CF070C94CF07D4
S11300500C94CF070C94CF070C94CF070C94CF07C4
S11300600C94CF070C94CF07524553554D4500507F
S113007041555345007C5F5F5F5F5F5F5F5F5F5F1C
S11300805F5F5F5F5F5F5F5F5F5F5F5F5F5F5F5F7C
S11300905F5F5F5F5F5F5F5F5F5F5F5F5F5F5F5F6C
S11300A05F5F5F5F5F5F5F5F5F5F5F5F5F5F5F5F5C
S11300B05F5F5F5F5F5F5F5F5F5F5F5F5F5F5F5F4C
S11300C05F5F5F5F5F5F5F5F5F5F5F5F5F5F5F5F3C
S11300D05F5F5F5F5F5F5F5F5F5F5F5F5F5F5F5F2C
S11300E05F5F5F5F5F5F5F5F5F5F5F5F5F5F5F5F1C
S11300F05F5F5F5F5F5F5F5F5F5F5F5F5F5F5F5F0C
S11301005F5F5F5F5F5F5F5F5F7C007C202020201C
S113011020202020202020202020202020202020DB
S113012020202020202020202020202020202020CB
S113013020202020202020202020202020202020BB
S113014020202020202020202020202020202020AB
S1130150202020202020202020202020202020209B
S1130160202020202020202020202020202020208B
S1130170202020202020202020202020202020207B
S1130180202020202020202020202020202020206B
S11301902020202020202020202020202020207CFF
S11301A0007C20202020202020202020202020200F
S11301B0202020202020202020202020202020203B
S11301C0202020202020202020207C2F2F2F2F2F84
S11301D02F2F2F2F2F2F2F2F2F2F2F2F2F2F2F2F2B
S11301E02F2F2F2F2F2F2F2F2F2F2F2F2F2F2F2F1B
S11301F02F2F2F2F2F2F2F2F2F2F2F2F2F2F2F2F0B
S11302002F2F2F2F2F2F2F2F2F2F20202020202054
S113021020202020202020202020202020202020DA
S113022020202020202020202020202020202020CA
S113023020202020207C007C202020202020202022
S113024020202020202020202020202020202020AA
S1130250202020202020202020202020202020209A
S11302607C2F7C5F5F5F5F5F5F5F5F5F5F5F5F5F90
S11302705F5F5F5F5F5F5F5F5F5F5F5F5F5F5F5F8A
S11302805F5F5F5F5F5F5F5F5F5F5F5F5F5F5F5F7A
S11302905F5F5F5F5F5F5F5F5F5F5F5F5F5F5F5F6A
S11302A07C202020202020202020202020202020EE
S11302B0202020202020202020202020202020203A
S11302C020202020202020202020207C007C202092
S11302D0202020202020202020202020202020201A
S11302E0202020202020202020202020202020200A
S11302F02020202020207C2F7C2020202020202033
S11303002020202020202020204E455720484947E7
S1130310482053434F524521204752454154204AD7
S11303204F42212020202020202020202020202077
S11303302020202020207C2020202020202020205D
S113034020202020202020202020202020202020A9
S11303502020202020202020202020202020202099
S1130360207C00207074730046696E616C205363B6
S11303706F72653A20007C2020202020202020203D
S11303802020202020202020202020202020202069
S11303902020202020202020202020202020207CFD
S11303A02F7C2D2D2D2D2D2D2D2D2D2D2D2D2D2D28
S11303B02D2D2D2D2D2D2D2D2D2D2D2D2D2D2D2D69
S11303C02D2D2D2D2D2D2D2D2D2D2D2D2D2D2D2D59
S11303D02D2D2D2D2D2D2D2D2D2D2D2D2D2D2D7CFA
S11303E02020202020202020202020202020202009
S11303F020202020202020202020202020202020F9
S1130400202020202020202020207C007C20202050
S113041020202020202020202020202020202020D8
S113042020202020202020202020202020202020C8
S11304302020202020202F7C3E3E3E3E3E3E3E3E5D
S11304403E3E3E3E3E3E3E3E3E3E3E3E3E3E3E3EC8
S11304503E3E20526573756C7473203C3C3C3C3CBE
S11304603C3C3C3C3C3C3C3C3C3C3C3C3C3C3C3CC8
S11304703C3C3C3C3C7C2020202020202020202090
S11304802020202020202020202020202020202068
S11304902020202020202020202020202020202058
S11304A07C007C20202020202020202020202020B0
S11304B02020202020202020202020202020202038
S11304C020202020202020202020202020205F5FAA
S11304D05F5F5F5F5F5F5F5F5F5F5F5F5F5F5F5F28
S11304E05F5F5F5F5F5F5F5F5F5F5F5F5F5F5F5F18
S11304F05F5F5F5F5F5F5F5F5F5F5F5F5F5F5F5F08
S11305005F5F5F5F5F5F5F5F5F5F5F202020202032
S113051020202020202020202020202020202020D7
S113052020202020202020202020202020202020C7
S11305302020202020207C007C202020202020201F
S113054020202020202020202020202020202020A7
S11305502020202020202020202020202020202097
S11305602020202020202020202020202020202087
S11305702020202020202020202020202020202077
S11305802020202020202020202020202020202067
S11305902020202020202020202020202020202057
S11305A02020202020202020202020202020202047
S11305B02020202020202020202020202020202037
S11305C02020202020202020202020207C007C208F
S11305D02020202020202020202020202020202017
S11305E02020202020202020202020202020202007
S11305F020202020202020202020202020202020F7
S113060020202020202020202020202020202020E6
S113061020202020202020202020202020202020D6
S113062020202020202020202020202020202020C6
S113063020202020202020202020202020202020B6
S113064020202020202020202020202020202020A6
S11306502020202020202020202020202020202096
S113066020207C00205F5F5F5F5F5F5F5F5F5F5F95
S11306705F5F5F5F5F5F5F5F5F5F5F5F5F5F5F5F86
S11306805F5F5F5F5F5F5F5F5F5F5F5F5F5F5F5F76
S11306905F5F5F5F5F5F5F5F5F5F5F5F5F5F5F5F66
S11306A05F5F5F5F5F5F5F5F5F5F5F5F5F5F5F5F56
S11306B05F5F5F5F5F5F5F5F5F5F5F5F5F5F5F5F46
S11306C05F5F5F5F5F5F5F5F5F5F5F5F5F5F5F5F36
S11306D05F5F5F5F5F5F5F5F5F5F5F5F5F5F5F5F26
S11306E05F5F5F5F5F5F5F5F5F5F5F5F5F5F5F5F16
S11306F05F5F5F5F5F5F5F5F20007C5F5F5F5F5F87
S11307005F5F5F5F5F5F5F5F5F5F5F5F5F5F5F5FF5
S11307105F5F5F5F5F5F5F5F5F5F5F5F5F5F5F5FE5
S11307205F5F5F5F5F5F5F5F5F5F5F5F5F5F5F5FD5
S11307305F5F5F5F5F5F5F5F5F5F5F5F5F5F5F5FC5
S11307405F5F5F5F5F5F5F5F5F5F5F5F5F5F5F5FB5
S11307505F5F5F5F5F5F5F5F5F5F5F5F5F5F5F5FA5
S11307605F5F5F5F5F5F5F5F5F5F5F5F5F5F5F5F95
S11307705F5F5F5F5F5F5F5F5F5F5F5F5F5F5F5F85
S11307805F5F5F5F5F5F5F5F5F5F5F5F5F5F7C00B7
S11307907C202020202020202020202020202020F9
S11307A02020202020202020202020202020202045
S11307B02020202020202020202020202020202035
S11307C02020202020202020202020202020202025
S11307D02020202020202020202020202020202015
S11307E02020202020202020202020202020202005
S11307F020202020202020202020202020202020F5
S113080020202020202020202020202020202020E4
S113081020202020202020202020202020202020D4
S1130820202020207C007C2020202020202020202C
S113083020202020202020202020202020202020B4
S11308402020202020202020202020202020207C48
S11308502F2F2F2F2F2F2F2F2F2F2F2F2F2F2F2FA4
S11308602F2F2F2F2F2F2F2F2F2F2F2F2F2F2F2F94
S11308702F2F2F2F2F2F2F2F2F2F2F2F2F2F2F2F84
S11308802F2F2F2F2F2F2F2F2F2F2F2F2F2F2F2083
S11308902020202020202020202020202020202054
S11308A02020202020202020202020202020202044
S11308B0202020202020202020207C007C2020209C
S11308C02020202020202020202020202020202024
S11308D02020202020202020202020202020202014
S11308E020202020207C2F7C5F5F5F5F5F5F5F5F45
S11308F05F5F5F5F5F5F5F5F5F5F5F5F5F5F5F5F04
S11309005F5F5F5F5F5F5F5F5F5F5F5F5F5F5F5FF3
S11309105F5F5F5F5F5F5F5F5F5F5F5F5F5F5F5FE3
S11309205F5F5F5F5F7C202020202020202020202C
S113093020202020202020202020202020202020B3
S113094020202020202020202020202020202020A3
S11309507C007C20202020202020202020202020FB
S11309602020202020202020202020202020202083
S113097020202020202020202020207C2F7C2D2D92
S11309802D2D2D2D2D2D2D2D2D2D2D2D2D2D2D2D93
S11309902D2D2D2D2D2D2D2D2D2D2D2D2D2D2D2D83
S11309A02D2D2D2D2D2D2D2D2D2D2D2D2D2D2D2D73
S11309B02D2D2D2D2D2D2D2D2D2D2D7C2020202048
S11309C02020202020202020202020202020202023
S11309D02020202020202020202020202020202013
S11309E02020202020207C007C202020202020206B
S11309F020202020202020202020202020202020F3
S1130A0020202020202020202020202020202020E2
S1130A1020202F7C3E3E3E3E3E3E3E3E3E3E3E3EFF
S1130A203E3E3E3E3E3E3E3E3E3E204C656164655B
S1130A3072626F617264203C3C3C3C3C3C3C3C3CFC
S1130A403C3C3C3C3C3C3C3C3C3C3C3C3C3C3C3CE2
S1130A503C7C20202020202020202020202020201A
S1130A602020202020202020202020202020202082
S1130A702020202020202020202020207C007C20DA
S1130A802020202020202020202020202020202062
S1130A902020202020202020202020202020202052
S1130AA0202020202020202020205F5F5F5F5F5FC8
S1130AB05F5F5F5F5F5F5F5F5F5F5F5F5F5F5F5F42
S1130AC05F5F5F5F5F5F5F5F5F5F5F5F5F5F5F5F32
S1130AD05F5F5F5F5F5F5F5F5F5F5F5F5F5F5F5F22
S1130AE05F5F5F5F5F5F5F20202020202020202049
S1130AF020202020202020202020202020202020F2
S1130B0020202020202020202020202020202020E1
S1130B1020207C007C202020202020202020202039
S1130B2020202020202020202020202020202020C1
S1130B3020202020202020202020202020202020B1
S1130B4020202020202020202020202020202020A1
S1130B502020202020202020202020202020202091
S1130B602020202020202020202020202020202081
S1130B702020202020202020202020202020202071
S1130B802020202020202020202020202020202061
S1130B902020202020202020202020202020202051
S1130BA020202020202020207C007C2020202020A9
S1130BB02020202020202020202020202020202031
S1130BC02020202020202020202020202020202021
S1130BD02020202020202020202020202020202011
S1130BE02020202020202020202020202020202001
S1130BF020202020202020202020202020202020F1
S1130C0020202020202020202020202020202020E0
S1130C1020202020202020202020202020202020D0
S1130C2020202020202020202020202020202020C0
S1130C3020202020202020202020202020207C0074
S1130C40205F5F5F5F5F5F5F5F5F5F5F5F5F5F5FEF
S1130C505F5F5F5F5F5F5F5F5F5F5F5F5F5F5F5FA0
S1130C605F5F5F5F5F5F5F5F5F5F5F5F5F5F5F5F90
S1130C705F5F5F5F5F5F5F5F5F5F5F5F5F5F5F5F80
S1130C805F5F5F5F5F5F5F5F5F5F5F5F5F5F5F5F70
S1130C905F5F5F5F5F5F5F5F5F5F5F5F5F5F5F5F60
S1130CA05F5F5F5F5F5F5F5F5F5F5F5F5F5F5F5F50
S1130CB05F5F5F5F5F5F5F5F5F5F5F5F5F5F5F5F40
S1130CC05F5F5F5F5F5F5F5F5F5F5F5F5F5F5F5F30
S1130CD05F5F5F5F0052617720506F74656E746967
S1130CE06F6D657465722056616C75653A200043BA
S1130CF0757272656E7420446966666963756C7496
S1130D007920436F6E66696775726174696F6E3AB4
S1130D1000476F6F6462796521205468616E6B735C
S1130D2020666F7220706C6179696E67204265611C
S1130D307420446F776E2E00456E74657220796F4F
S1130D4075722063686F6963652028312D35293AEF
S1130D502000352E205265636F72642043757374CE
S1130D606F6D20426561746D617000342E2045788A
S1130D70697400332E205669657720446966666974
S1130D8063756C7479204C6576656C00322E205640
S1130D9069657720486967682053636F72657300DB
S1130DA0312E2053746172742047616D65000A2DE1
S1130DB02D2D204D61696E204D656E75202D2D2DD4
S1130DC0003D3D3D3D3D3D3D3D3D3D3D3D3D3D3D8C
S1130DD03D3D3D3D3D3D3D3D3D3D3D3D3D3D3D3D3F
S1130DE03D3D3D3D3D3D3D3D3D002020202020201A
S1130DF020202057656C636F6D6520746F204265F9
S1130E00617420446F776E21202020202020202030
S1130E102020003D3D3D3D3D3D3D3D3D3D3D3D3D75
S1130E203D3D3D3D3D3D3D3D3D3D3D3D3D3D3D3DEE
S1130E303D3D3D3D3D3D3D3D3D3D3D0020626561C7
S1130E4074732072656164792E0042656174206D4B
S1130E506170206C6F61646564210052454144599E
S1130E605F464F525F424541544D415000526563C5
S1130E706F7264696E6720636F6D706C6574652151
S1130E800052004D004C00536F6E6720656E646520
S1130E9064206561726C7920627920686F73742EA6
S1130EA000536F6E6720656E6473206175746F6D97
S1130EB061746963616C6C79207768656E204D415B
S1130EC0585F424541545320726561636865642EDE
S1130ED0005265636F7264696E67212054617020EB
S1130EE0616C6F6E6720746F2074686520736F6E19
S1130EF0672E00535441525400424541544D4150D1
S1130F005F454E4400424541544D41505F53544166
S1130F10525400456E74657220696E697469616C1F
S1130F20733A20004D4953530057524F4E470053D4
S1130F3054415254004E6F2062656174206D61709B
S1130F40206C6F616465642E00496E76616C69641F
S1130F50206F7074696F6E2E2054727920616761FE
S1130F60696E2E0011241FBECFEFD8E0DEBFCDBFC7
S1130F7013E0A0E0B1E0E8E9FFE202C005900D92C1
S1130F80AC37B107D9F728E0ACE7B3E001C01D9254
S1130F90A13AB207E1F70E9442120C94CA170C94CA
S1130FA0000080E480937C00EAE7F0E080818068C0
S1130FB0808380818760808308958770ECE7F0E008
S1130FC09081907F892B8083EAE7F0E080818064C0
S1130FD0808380917A0086FDFCCF80917800909187
S1130FE07900089581E00E94DD078A30910500F5BB
S1130FF02091960321111CC082E0809396038FE612
S113100090E00E9456138BB180688BB98BB18F7BB3
S11310108BB980E80E94C7118AE091E00E94B41164
S113102080EC0E94C7118BE191E00E94B4110895F5
S1131030C397F0F0809196038230D1F41092960316
S113104088E690E00E9456138BB18F778BB98BB1F1
S113105080648BB980E80E94C7118CE291E00E9401
S1131060B41180EC0E94C7118DE391E00E94B41189
S1131070089590937D0380937C038DB38C7F8DBB07
S1131080EDE6F0E080818F7E80831092B200E1EB88
S1131090F0E0808187608083E0E7F0E08081826017
S11310A080830895FC01A1EBB0E09C91987F9C9310
S11310B0A0E7B0E09C919D7F9C938081813019F4DE
S11310C082E0808304C08081833009F410828DB370
S11310D083608DBBEDE6F0E0808180618083E8E68B
S11310E0F0E080818460808308950F931F93CF93F1
S11310F0DF93EB018A0129B130E0082E02C0359557
S113110027950A94E2F720FD0BC09881911108C03D
S1131110CB010E94390881E08883F801808312C0E2
S113112029B130E0A90102C0559547958A95E2F7A7
S113113040FF08C08881823029F4CE010E9439081A
S113114083E08883DF91CF911F910F9108958AB135
S1131150837E8AB98BB18C618BB9E9E6F0E080813A
S1131160856080838DB383608DBBEDE6F0E0808184
S113117080618083E8E6F0E0808184608083E0EB36
S1131180F0E080818260808389EE8093B3000895CB
S11311901F920F920FB60F9211242F933F934F93E8
S11311A05F936F937F938F939F93AF93BF93EF93CB
S11311B0FF9380917C0390917D03892B51F0809162
S11311C07C0390917D030E94520810927D0310923B
S11311D07C03FF91EF91BF91AF919F918F917F918C
S11311E06F915F914F913F912F910F900FBE0F9090
S11311F01F9018951F920F920FB60F9211242F93E0
S11312003F934F935F936F937F938F939F93AF938A
S1131210BF93EF93FF9340E853E063E873E082E009
S11312200E94750880919603813011F40E94310B5D
S1131230FF91EF91BF91AF919F918F917F916F91AA
S11312405F914F913F912F910F900FBE0F901F9080
S113125018951F920F920FB60F9211242F933F935C
S11312604F935F936F937F938F939F93AF93BF93AA
S1131270EF93FF934FE753E062E873E083E00E944B
S1131280750880919603813011F40E94310BFF910F
S1131290EF91BF91AF919F918F917F916F915F91EA
S11312A04F913F912F910F900FBE0F901F90189563
S11312B01F920F920FB60F9211242F933F934F93C7
S11312C05F936F937F938F939F93AF93BF93EF93AA
S11312D0FF934EE753E061E873E084E00E947508F1
S11312E080919603813011F40E94310BFF91EF91AC
S11312F0BF91AF919F918F917F916F915F914F912A
S11313003F912F910F900FBE0F901F90189583E17E
S11313109EE00E9456138AEE9DE00E94561381ECD3
S11313209DE00E94561308958EEA9DE00E94561394
S113133080EA9DE00E9456138CE89DE00E945613BB
S113134083E79DE00E9456138BE69DE00E945613AE
S113135082E59DE00E94561388E39DE00E945613A7
S1131360089581E19DE00E94561308950F931F9301
S1131370CF93DF93CDB7DEB72C970FB6F894DEBFCB
S11313800FBECDBF8C018FEE9CE00E94561385EDFD
S11313909CE00E9456134AE0BE016F5F7F4FC80174
S11313A00E944514CE0101960E9443132C960FB659
S11313B0F894DEBF0FBECDBFDF91CF911F910F9187
S11313C00895AF92BF92DF92EF92FF920F931F9313
S11313D0CF93DF93CDB7DEB7CC5AD1090FB6F894CB
S11313E0DEBF0FBECDBF80E49CE00E9456138AEAA4
S11313F09BE00E94561384E19BE00E9456138EE703
S11314009AE00E94561388EE99E00E94561382E5F2
S113141099E00E945613D12C38C00D2D10E0C8015C
S1131420880F991F880F991F880F991F9C012556B3
S11314303C4F7901F90164817581868197812AE0A5
S1131440AE014F5F5F4F5A010E945014BF92AF929A
S1131450FF92EF920F5F1F4F1F930F938EE491E063
S11314609F938F931F9280EA8F938E01035F1F4F88
S11314701F930F930E949B14C8010E944313D3949B
S11314800FB6F894DEBF0FBECDBF99E09D1528F6C8
S11314908CEB98E00E94561386E298E00E94561363
S11314A080E997E00E9456138AEF96E00E94561353
S11314B0C455DF4F0FB6F894DEBF0FBECDBFDF912A
S11314C0CF911F910F91FF90EF90DF90BF90AF905D
S11314D00895CF92DF92EF92FF920F931F93CF93D1
S11314E0DF93CDB7DEB7CC58D1090FB6F894DEBF81
S11314F00FBECDBF6B017C01142F84E696E00E94E1
S113150056138EEC95E00E94561388E395E00E94F2
S1131510561382EA94E00E9456138CE094E00E94F1
S1131520561386E793E00E94561388E693E00E94E0
S113153056132AE0AE014F5F5F4FC701B6010E9408
S11315405014CE0101960E94431383E693E00E9457
S11315505613112329F08DEC92E00E9456132AC0F1
S113156060918A0370918B0380918C0390918D0319
S11315702AE08E010F5F1F4FA8010E94501484E0DF
S113158091E09F938F931F930F9381EE91E09F932C
S11315908F931F9280E88F93045F1F4F1F930F93C5
S11315A00E949B14C8010E9443130FB6F894DEBF37
S11315B00FBECDBF87E392E00E94561381EA91E00B
S11315C00E9456138BE091E00E94561385E790E049
S11315D00E945613C457DF4F0FB6F894DEBF0FBEF8
S11315E0CDBFDF91CF911F910F91FF90EF90DF90CE
S11315F0CF9008951F93CF93DF93EC0183E792E09C
S11316000E94431310E021C0E12FF0E0CF01880FC6
S1131610991FE80FF91FEC0FFD1F208130E0A9018D
S1131620440F551F440F551F9181292F30E0220F7D
S1131630331F8281242B822B805D0E943C13173040
S113164018F48CE20E943C131F5F1830E8F28DE01E
S11316500E943C138AE00E943C13DF91CF911F91BA
S11316600895CF92DF92EF92FF92F89480919703BE
S113167090919803A0919903B0919A037894409122
S11316808603509187036091880370918903841BBA
S1131690950BA60BB70B3AF4B095A0959095819550
S11316A09F4FAF4FBF4F80938E0390938F03A093B0
S11316B09003B093910380E00E94DD0728ECAC0115
S11316C0249FC001259F900D11246FEF73E00E94A9
S11316D099136B0152E3C50ED11CE12CF12C8091BE
S11316E08E0390918F03A0919003B0919103C8163B
S11316F0D906EA06FB0608F449C020918E0330910E
S11317008F034091900350919103A4E6B0E00E94AE
S1131710CF13A70196010E94AD1384E6821B90911A
S11317200901899FC001112440918A0350918B03C0
S113173060918C0370918D03092E000CAA0BBB0BD6
S1131740840F951FA61FB71F80938A0390938B0362
S1131750A0938C03B0938D03809195038F5F809346
S113176095038BB180648BB98BB18F778BB98091E2
S113177095038A30C0F081E08093940380EC0E944A
S1131780C71189E792E00E94B4110DC0109295032D
S113179081E080930901109294038BB180688BB926
S11317A08BB18F7B8BB910929603FF90EF90DF90F3
S11317B0CF9008958F929F92AF92BF92EF92FF9233
S11317C01F93CF93DF93CDB7DEB7A0970FB6F894EE
S11317D0DEBF0FBECDBF85E09FE00E945613E12C13
S11317E0F12C812C912C54012EC0F701EE0FFF1F18
S11317F0E551FC4F808191819C013F7384E0989F67
S1131800812D99271124182F1370820E931EA11C69
S1131810B11C2AE049E658E0C501B4010E94501405
S11318204AE0BE016F5F7F4F812F90E00E94451414
S1131830AE014F5F5F4F6CE289E698E00E9472133D
S11318408FEFE81AF80A8091840390918503E816D3
S1131850F90658F289EF9EE00E945613A0960FB63F
S1131860F894DEBF0FBECDBFDF91CF911F91FF90E3
S1131870EF90BF90AF909F908F900895CF92DF929A
S1131880EF92FF92109285031092840383EF9EE0FF
S11318900E94561380E80E94C71189E892E00E94D2
S11318A0B41180EC0E94C7118AE992E00E94B4113D
S11318B081ED9EE00E94561381EA9EE00E94561339
S11318C0F89410929703109298031092990310922F
S11318D09A037894C12CD12C760171C08091C000F8
S11318E088235CF48091C600833711F0833529F492
S11318F087E89EE00E9456136AC080918003882383
S113190049F01092800385E89EE00E94561320E07F
S113191081E01CC080917E03882349F010927E03ED
S113192083E89EE00E94561321E081E00FC080917D
S11319307F03882349F010927F0381E89EE00E9490
S1131940561322E081E002C020E080E08823B9F150
S113195040919703509198036091990370919A0371
S1131960DB01CA018C199D09AE09BF09811530E458
S11319709307A105B10520F08FEF9FE3A0E0B0E04D
S113198030E030E4239F302D222711249F73822BD3
S1131990932B2091840330918503F901EE0FFF1FEF
S11319A0E551FC4F918380832F5F3F4F3093850334
S11319B0209384038BB180648BB96A017B0180918D
S11319C08403909185038F33924008F487CF0E945B
S11319D0DA0B8DE69EE00E94561380E80E94C71140
S11319E08BEA92E00E94B411FF90EF90DF90CF90C9
S11319F008950E9494090E946B13833389F028F49C
S1131A00813341F0823349F017C0843379F0853350
S1131A1081F012C00E94E80D08950E94E109089522
S1131A2080E00E94DD070E94B60908950E94B10972
S1131A3008950E943E0C089589E49FE00E94561385
S1131A40DACFEF92FF920F931F93CF93DF9300D0DF
S1131A5000D0CDB7DEB78BB18F778BB98BB18F7BCD
S1131A608BB91092920380E020C0E82FF0E0EE0FD3
S1131A70FF1FEE0FFF1FEE0FFF1FE556FC4F048103
S1131A8015812681378140918A0350918B0360919F
S1131A908C0370918D03041715072607370720F46C
S1131AA081E08093920303C08F5F8A30F0F240910B
S1131AB0920360918A0370918B0380918C039091BF
S1131AC08D030E94690A80919203882309F471C0EE
S1131AD083E19FE00E94561310E00EC00E946B1336
S1131AE08D3051F08A3041F0E1E0F0E0EC0FFD1F61
S1131AF0E10FF11D80831F5F133080F389E056C02E
S1131B00882319F1A82F082E000CBB0B7D0191E04E
S1131B10E91AF1089701220F331F220F331F220FF6
S1131B20331F25563C4FF9010481158126813781E5
S1131B3040918A0350918B0360918C0370918D03C3
S1131B400417150726073707D0F040918A035091F0
S1131B508B0360918C0370918D0398E08902F001EE
S1131B601124E556FC4F448355836683778389812A
S1131B7080838A8181838B81828313821AC0AA0F16
S1131B80BB1FAA0FBB1FAA0FBB1FA556BC4FF70153
S1131B90EE0FFF1FEE0FFF1FEE0FFF1FE556FC4F6A
S1131BA098E001900D929A95E1F7815088230CF00A
S1131BB0A7CF0E94E1090E94F90C0F900F900F909B
S1131BC00F90DF91CF911F910F91FF90EF900895A7
S1131BD04F925F926F927F928F929F92AF92BF9239
S1131BE0CF92DF92EF92FF920F931F93CF93DF93E5
S1131BF0CDB7DEB72A970FB6F894DEBF0FBECDBFC0
S1131C008091840390918503892B39F485E39FE0C7
S1131C100E9456130E94F90C05C21092950381E0AC
S1131C208093090110929303109296030E94C711A6
S1131C3080E80E94C7118CEB92E00E94B4112FEF50
S1131C4033ED40E3215030404040E1F700C0000054
S1131C5080E80E94C7118DEC92E00E94B4115FEFFE
S1131C6063ED70E3515060407040E1F700C0000044
S1131C7081E00E94C71180E80E94C7118EED92E0B6
S1131C800E94B41130E012C0832F90E0FC01EE0FEB
S1131C90FF1FE80FF91FE757F74FE20FF11D1082FE
S1131CA02F5F01C020E0233078F33F5F3830D0F35A
S1131CB08FE29FE00E945613F894109297031092BB
S1131CC098031092990310929A037894C12CD12C02
S1131CD076011D821E821F821886412C512C3201EE
S1131CE01A86198600E010E08CC180919603823038
S1131CF009F487C1F8948090970390909803A0907A
S1131D009903B0909A03789480919603813009F0F6
S1131D1046C080918003882321F0809108018823A4
S1131D2081F080917E03882321F080910801813025
S1131D3041F080917F03882339F08091080182303B
S1131D4019F40E94310B25C080918003811108C0D1
S1131D5080917E03811104C080917F038823C9F0A0
S1131D601092950381E080930901109294038BB142
S1131D7080688BB98BB18F7B8BB9109281001092E4
S1131D808500109284001092960389E29FE00E94DD
S1131D9056131092800310927E0310927F03D50194
S1131DA0C40184199509A609B70984369105A105CA
S1131DB0B10500F569C0E22F022E000CFF0BDF0114
S1131DC01197CD01880F991FA80FB91FA757B74FB7
S1131DD03C91CF01880F991FE80FF91FE757F74F80
S1131DE0308311968C911197818312968C91828302
S1131DF0215001C027E01216F4F2E9E8F8E010825D
S1131E001182128232C0E985FA85EE0FFF1FE55177
S1131E10FC4F808191819C013F7384E0989F812DC8
S1131E20992711248370B701A601420F531F611D26
S1131E30711D2401350190E2490E93E0591E611C85
S1131E40711C4416550666067706C0F0833030F4DC
S1131E50E82FF0E0E757F74F81E08083A985BA8542
S1131E601196BA87A9876A017B01809184039091B6
S1131E70850329853A852817390728F289E898E0E7
S1131E800E94FA0A2401350180918403909185030C
S1131E900817190708F054C0F801EE0FFF1FE551A9
S1131EA0FC4F808191819C013F7384E0989F812D38
S1131EB09927112483704D815E816F817885420F4B
S1131EC0531F611D711D49835A836B837C839091D9
S1131ED096039130A9F184169506A606B70680F1FB
S1131EE08093080191E090939603809286039092E8
S1131EF08703A0928803B09289039BB190649BB935
S1131F004AE069E678E090E00E94451449E658E02A
S1131F106AE38FEE92E00E94721310928500109291
S1131F208400E1E8F0E08081856080830F5F1F4FCB
S1131F3069817A818B819C816D837E838F8398876D
S1131F4080919603813009F05CC0609184007091A7
S1131F508500CB01A0E0B0E0880F991FAA1FBB1F2A
S1131F60880F991FAA1FBB1F880F991FAA1FBB1F89
S1131F70880F991FAA1FBB1FBC01CD01660F771FD5
S1131F80881F991F660F771F881F991F20E83EE35B
S1131F9040E050E00E94AD1349015A0180E00E94E4
S1131FA0DD0728ECDC012A9FC0012B9F900D112432
S1131FB06FEF73E00E949913CB01C296A0E0B0E0EA
S1131FC088159905AA05BB05E0F4E1E8F0E08081F5
S1131FD08A7F80831092850010928400109295036A
S1131FE081E080930901109294038BB180688BB9CE
S1131FF08BB18F7B8BB91092960384E29FE00E9491
S1132000561380918403909185030817190728F4C7
S113201080919303882309F468CE81E0809393032D
S11320200E94210D2A960FB6F894DEBF0FBECDBFD5
S1132030DF91CF911F910F91FF90EF90DF90CF90A0
S1132040BF90AF909F908F907F906F905F904F90D4
S113205008954F925F926F927F928F929F92AF9268
S1132060BF92CF92DF92EF92FF921F93CF93DF93B1
S1132070CDB7DEB7A1970FB6F894DEBF0FBECDBFC4
S113208010928503109284038BE59EE00E94561300
S1132090C12CD12C760110E003C010E001C010E087
S11320A00E946B138D30E1F38A3009F087C0E1E0C0
S11320B0F0E0EC0FFD1FE10FF11D108289818C34DB
S11320C051F48A818F3439F48B81813421F48C81E9
S11320D0843409F482C040918403509185034F33C2
S11320E032E05307D0F660E0812C912C54011EC0DD
S11320F0880C991CAA1CBB1C24013501440C551CDA
S1132100661C771C440C551C661C771C840C951C9F
S1132110A61CB71C30E0C901C097092E000CAA0BFD
S1132120BB0B880E991EAA1EBB1E6F5FE1E0F0E098
S1132130EC0FFD1FE60FF11D20812C3211F021114F
S1132140D7CF2C3209F46F5FE1E0F0E0EC0FFD1F14
S1132150E60FF11D808120ED280F233028F02FECAD
S1132160280F233008F09BCFD501C4018C199D0999
S1132170AE09BF09811530E49307A105B10520F02C
S11321808FEF9FE3A0E0B0E030E030E4239F302DF8
S1132190222711249F73822B932BFA01EE0FFF1F2A
S11321A0E551FC4F918380834F5F5F4F50938503CC
S11321B0409384037501640110E072CF1F3108F06D
S11321C06FCFE1E0F0E0EC0FFD1FE10FF11D808324
S11321D01F5F66CF8091C60089A38091C0008823C9
S11321E0CCF38AE49EE00E9456134AE069E678E064
S11321F080918403909185030E94451489E698E0B8
S11322000E9443138CE39EE00E945613A1960FB6DE
S1132210F894DEBF0FBECDBFDF91CF911F91FF9029
S1132220EF90DF90CF90BF90AF909F908F907F9072
S11322306F905F904F90089580E190E00E94281382
S11322400E94DF110E94A7080E94EE120E94D1078B
S113225080E014C0E82FF0E0EE0FFF1FEE0FFF1F29
S1132260EE0FFF1FE556FC4F14821582168217826B
S11322709DE290839183928313828F5F8A3050F31F
S113228080918400909185000E943A1478948AB1D8
S113229080648AB98AB180688AB90E9429100E9430
S11322A0870980E80E94C71184EF92E00E94B4116C
S11322B080EC0E94C71185E093E00E94B411089558
S11322C084B1806284B984B1806184B984B1886046
S11322D084B984B1846084B984B1826084B984B1DE
S11322E0816084B9089595B19F7D95B988231CF4C4
S11322F095B1906295B995B19F7E95B986FF03C05B
S113230095B1906195B995B1977F95B985FF03C053
S113231095B1986095B995B19B7F95B984FF03C039
S113232085B1846085B985B1826085B985E08A9577
S1132330F1F7000085B18D7F85B985E08A95F1F7C5
S113234000000895CF93C82F85B1816085B985B108
S11323508D7F85B98C2F0E9473118C2F8295807F7D
S11323600E947311CF910895CF93DF93EC0109C0BC
S113237021960E94A2118FE391E00197F1F700C02A
S1132380000088818111F4CFDF91CF910895CF931C
S1132390C82F85B18E7F85B985B18D7F85B98C2F86
S11323A00E9473118C2F8295807F0E9473118FE39A
S11323B091E00197F1F700C00000CF9108950E94C9
S11323C060112FEF81EE94E0215080409040E1F7BE
S11323D000C0000085B18E7F85B985B18D7F85B938
S11323E080E30E9473118FE39CE90197F1F700C029
S11323F0000080E30E9473118FE193E00197F1F7ED
S113240000C0000080E30E9473118FE193E0019704
S1132410F1F700C0000088E20E9473118FE391E09D
S11324200197F1F700C0000088E20E94C7118FE312
S113243091E00197F1F700C0000088E00E94C71105
S11324408FE391E00197F1F700C0000081E00E9462
S1132450C7118FE79EE30197F1F700C0000086E003
S11324600E94C7118FE391E00197F1F700C00000CB
S11324708CE00E94C7118FE391E00197F1F700C04F
S1132480000008950E941C110E94F90C0E94F2079A
S11324900E94CB1280918003882361F01092800304
S11324A080919603811106C086E193E00E94431354
S11324B00E94310B80917E03882361F010927E0389
S11324C080919603811106C085E293E00E94431334
S11324D00E94310B80917F03882361F010927F0367
S11324E080919603811106C086E393E00E94431312
S11324F00E94310B80919303882341F2109293033D
S11325000E94210D0E94F90CC1CF84EA8093BC0083
S11325108091BC008823E4F786EA8093BB0084E8BA
S11325208093BC008091BC008823E4F782E380930D
S1132530BB0084E88093BC008091BC008823E4F74E
S113254084EA8093BC008091BC008823E4F787EA86
S11325508093BB0084E88093BC008091BC008823F6
S1132560E4F784EC8093BC008091BC008823E4F7FA
S11325702091BB0084E88093BC008091BC00882338
S1132580E4F78091BB0094E99093BC0090E0982F0D
S11325908827822B08950E94851299231CF4919513
S11325A081959109893C9105C4F08091960381112C
S11325B014C080919403882381F082E08093090100
S11325C01092940386E493E00E94431380EC0E94EB
S11325D0C71186E693E00E94B411089584B5826021
S11325E084BD99EF97BD85B5836085BDEEE6F0E0C7
S11325F0808182608083E0EBF0E080818260808370
S11326009093B30008951F920F920FB60F92112466
S11326108F939F93AF93BF93809197039091980367
S1132620A0919903B0919A030196A11DB11D8093C5
S1132630970390939803A0939903B0939A03BF913F
S1132640AF919F918F910F900FBE0F901F9018958F
S11326509093C5008093C400E0ECF0E08081826038
S11326608083E1ECF0E0808188618083E2ECF0E03B
S113267080818660808308959091C00095FFFCCF8F
S11326808093C6000895CF93DF93EC0103C00E94AA
S11326903C13219688818111FACF8DE00E943C136E
S11326A08AE00E943C13DF91CF910895CF93DF938A
S11326B0FC0103C00E943C13FE01EF0121968491AA
S11326C08111F8CF8DE00E943C138AE00E943C13F4
S11326D0DF91CF9108958091C0008823E4F7809121
S11326E0C6000895FF920F931F93CF93DF938C013D
S11326F0F62EEA0104C00F5F1F4F0E943C13F8013D
S113270080818111F8CF8F2D0E943C1303C0219644
S11327100E943C1388818111FACF8DE00E943C1302
S11327208AE00E943C13DF91CF911F910F91FF909B
S11327300895AA1BBB1B51E107C0AA1FBB1FA61704
S1132740B70710F0A61BB70B881F991F5A95A9F756
S113275080959095BC01CD010895A1E21A2EAA1B83
S1132760BB1BFD010DC0AA1FBB1FEE1FFF1FA2173D
S1132770B307E407F50720F0A21BB30BE40BF50B3A
S1132780661F771F881F991F1A9469F760957095C3
S1132790809590959B01AC01BD01CF0108950E94E5
S11327A0DA13A59F900DB49F900DA49F800D911DE9
S11327B011240895A29FB001B39FC001A39F700D7F
S11327C0811D1124911DB29F700D811D1124911D35
S11327D008958F929F92AF92BF92CF92DF92EF9221
S11327E0FF92CF93DF93EC01688179818A819B8189
S11327F0611571058105910521F464E279ED8BE59C
S113280097E02DE133EF41E050E00E946C1749015D
S11328105A019B01AC01A7EAB1E40E94CF136B01FA
S11328207C01ACEEB4EFA50194010E948E17DC018B
S1132830CB018C0D9D1DAE1DBF1DB7FF03C00197BD
S1132840A109B04888839983AA83BB839F77DF91CA
S1132850CF91FF90EF90DF90CF90BF90AF909F907B
S11328608F9008950E94E913089580E091E00E94FA
S1132870E9130895A0E0B0E0809300019093010172
S1132880A0930201B09303010895BB274A3031F4A9
S1132890992322F4BDE2909581959F4F0C94821464
S11328A0BB272A3051F4992342F4BDE290958095D8
S11328B0709561957F4F8F4F9F4F0C946014BB2789
S11328C0FA01A62F6217710581059105330B30FBC0
S11328D066F0AA27660F771F881F991FAA1FA217E1
S11328E010F0A21B63953850A9F7A05DAA3308F035
S11328F0A95DA19336F7B111B1931082CA010C946A
S1132900C216BB27FB015527AA27880F991FAA1FA8
S1132910A41710F0A41B83955051B9F7A05DAA33F6
S113292008F0A95DA193009779F7B111B1931192C1
S1132930CB010C94C216AEE0B0E0E1EAF4E10C94F1
S1132940A1170D891E898F89988D26E02C831A83FF
S1132950098397FF02C080E090E801979E838D83EE
S1132960AE01455E5F4F698D7A8DCE0101960E945E
S1132970CB144D815E8157FD0AC02F8138854217E3
S113298053070CF49A01F801E20FF31F10822E96FC
S1132990E4E00C94BD17ABE0B0E0E1EDF4E10C949D
S11329A093176C017B018A01FC01178216828381D3
S11329B081FFCCC1CE0101963C01F6019381F70160
S11329C093FD859193FF81917F01882309F4BAC116
S11329D0853239F493FD859193FF81917F0185328E
S11329E029F4B60190E00E94D216E7CF912C212C55
S11329F0312CFFE1F315D8F08B3279F038F48032C2
S1132A0079F08332A1F4232D20611DC08D3261F051
S1132A10803369F4232D216016C0832D8260382E03
S1132A20E32DE4603E2E2AC0F32DF8601DC037FC70
S1132A302DC020ED280F2A3040F08E32B9F436FC38
S1132A4081C1232D2064322E19C036FE06C08AE0CF
S1132A50989E200D1124922E11C0EAE02E9E200D86
S1132A601124222EF32DF0623F2E08C08C3621F45F
S1132A70832D8068382E02C0883641F4F70193FD17
S1132A80859193FF81917F018111B3CF982F9F7D11
S1132A909554933028F40C5F1F4F9FE399830DC026
S1132AA0833631F0833771F0833509F059C021C082
S1132AB0F801808189830E5F1F4F88248394912CB1
S1132AC0530113C02801F2E04F0E511CF801A080FD
S1132AD0B18036FE03C0692D70E002C06FEF7FEF56
S1132AE0C5010E94B7164C018201F32DFF773F2EDA
S1132AF016C0280122E0420E511CF801A080B180CA
S1132B0036FE03C0692D70E002C06FEF7FEFC50190
S1132B100E94AC164C01F32DF0683F2E820133FC69
S1132B201BC0822D90E088169906B0F4B60180E2AD
S1132B3090E00E94D2162A94F4CFF50137FC8591D7
S1132B4037FE81915F01B60190E00E94D2162110F8
S1132B502A9421E0821A91088114910471F7E8C043
S1132B60843611F0893641F5F80137FE07C06081DB
S1132B707181828193810C5F1F4F08C060817181D4
S1132B80072E000C880B990B0E5F1F4FF32DFF7659
S1132B903F2E97FF09C090958095709561957F4F62
S1132BA08F4F9F4FF0683F2E2AE030E0A3010E9430
S1132BB00E17882E861845C0853731F4232D2F7EB5
S1132BC0B22E2AE030E025C0932D997FB92E8F369E
S1132BD0C1F018F4883579F0B5C0803719F088371A
S1132BE021F0B0C0E92FE061BE2EB4FE0DC0FB2D74
S1132BF0F460BF2E09C034FE0AC0292F2660B22E0D
S1132C0006C028E030E005C020E130E002C020E149
S1132C1032E0F801B7FE07C060817181828193813F
S1132C200C5F1F4F06C06081718180E090E00E5FF1
S1132C301F4FA3010E940E17882E8618FB2DFF77C5
S1132C403F2E36FE0DC0232D2E7FA22E891458F45C
S1132C5034FE0BC032FC09C0832D8E7EA82E05C025
S1132C60B82CA32C03C0B82C01C0B92CA4FE0FC0EF
S1132C70FE01E80DF11D8081803321F49A2D997EA7
S1132C80A92E09C0A2FE06C0B394B39404C08A2D31
S1132C90867809F0B394A3FC11C0A0FE06C0B21458
S1132CA088F4280C922C9B180EC0B21460F4B60160
S1132CB080E290E00E94D216B394F7CFB21418F4D5
S1132CC02B1802C0982C212CA4FE10C0B60180E35E
S1132CD090E00E94D216A2FE17C0A1FC03C088E7B0
S1132CE090E002C088E590E0B6010CC08A2D867899
S1132CF059F0A1FE02C08BE201C080E2A7FC8DE284
S1132D00B60190E00E94D216891438F4B60180E32B
S1132D1090E00E94D2169A94F7CF8A94F301E80DBA
S1132D20F11D8081B60190E00E94D2168110F5CF8A
S1132D30222009F442CEB60180E290E00E94D2162D
S1132D402A94F6CFF6018681978102C08FEF9FEF18
S1132D502B96E2E10C94AF17FC0105906150704092
S1132D600110D8F7809590958E0F9F1F0895FC0150
S1132D706150704001900110D8F7809590958E0FA6
S1132D809F1F0895DC01FC01672F71917723E1F700
S1132D90329704C07C916D9370836291AE17BF0724
S1132DA0C8F308950F931F93CF93DF93FB012381FF
S1132DB021FD03C08FEF9FEF2CC022FF16C0468178
S1132DC05781248135814217530744F4A081B1818E
S1132DD09D012F5F3F4F318320838C932681378160
S1132DE02F5F3F4F3783268314C08B01EC01FB0117
S1132DF00084F185E02D0995892BE1F6D80116961A
S1132E008D919C911797019617969C938E93169784
S1132E10CE01DF91CF911F910F910895FA01AA2756
S1132E20283051F1203181F1E8946F936E7F6E5F09
S1132E307F4F8F4F9F4FAF4FB1E03ED0B4E03CD0B7
S1132E40670F781F891F9A1FA11D680F791F8A1F9A
S1132E50911DA11D6A0F711D811D911DA11D20D001
S1132E6009F468943F912AE0269F11243019305DBB
S1132E703193DEF6CF010895462F4770405D4193AC
S1132E80B3E00FD0C9F7F6CF462F4F70405D4A33F9
S1132E9018F0495D31FD4052419302D0A9F7EACFC1
S1132EA0B4E0A6959795879577956795BA95C9F7F0
S1132EB000976105710508959B01AC010A2E0694E3
S1132EC05795479537952795BA95C9F7620F731F9C
S1132ED0841F951FA01D0895052E97FB1EF40094D2
S1132EE00E94831757FD07D00E94AD1307FC03D03F
S1132EF04EF40C94831750954095309521953F4F8F
S1132F004F4F5F4F089590958095709561957F4FD1
S1132F108F4F9F4F0895B7FF0C94CF130E94CF1388
S1132F20821B930B08952F923F924F925F926F9260
S1132F307F928F929F92AF92BF92CF92DF92EF9245
S1132F40FF920F931F93CF93DF93CDB7DEB7CA1BC6
S1132F50DB0B0FB6F894DEBF0FBECDBF09942A88F1
S1132F60398848885F846E847D848C849B84AA8499
S1132F70B984C884DF80EE80FD800C811B81AA8126
S1132F80B981CE0FD11D0FB6F894DEBF0FBECDBFF1
S10B2F90ED010895F894FFCF50
S1132F98010000002D2D2D00FF0120202D2D205093
S1132FA84155534544202D2D2020002020436F7681
S1132FB865722073656E736F7220200020202D2D9A
S1132FC82052554E4E494E47202D2D2000202020BA
S1132FD820202020202020202020202020007C20A9
S1132FE820202020202020202020202020202020D5
S1132FF820202020202020202020202020202020C5
S1133008202020202020207C2F7C20202023257590
S1133018202020252D33732020202020202020202C
S11330282020202020202020202020202020202094
S113303853636F72653A202538732020202020209E
S1133048202020207C202020202020202020202018
S11330582020202020202020202020202020202064
S11330682020202020202020202020202020207CF8
S1133078007C202020202020202020202020202008
S11330882020202020202020202020202020202034
S1133098202020202020202020207C2F7C2020205D
S11330A82020596F75722053636F72653A20257317
S11330B8202825732920202020202020202020209B
S11330C820202020202020202020202020202020F4
S11330D82020202020207C20202020202020202088
S11330E820202020202020202020202020202020D4
S11330F820202020202020202020202020202020C4
S1133108207C00475249443A00504F5745522D55A8
S1133118502052454144592100205265636F72641E
S1133128696E672E2E2E202020004C3D6C6674207C
S11331384D3D6D696420523D7274005265636F722F
S113314864696E6720646F6E65212000202020204A
S113315852656164792E2E2E2020202000202033F1
S11331682E2E2E20322E2E2E20312E2E20002020E0
S1133178474F2120474F2120474F2120202000423C
S11331884541540020546865204265617420446FA9
S1133198776E212000507265737320746F207374E6
S11331A86172742120004C656674206C616E652020
S11331B86869742E004D6964646C65206C616E6581
S11331C8206869742E005269676874206C616E65A2
S11331D8206869742E002A2A2A203258204D554C1A
S11331E85449504C49455220414354495641544549
S11331F844202A2A2A0020202A2A203258204143FF
S10F320854495645202A2A2020200000AA
S9030000FC
