S022000046696E616C2050726F6A65637420666F7220456D6265646465642E7372656390
S11300000C94F7000C9457020C9486020C9414017F
S11300100C9414010C94B5020C9414010C94250254
S11300200C9414010C9414010C9414010C941401F8
S11300300C9414010C9414010C94560E0C94140199
S11300400C9414010C9414010C9414010C941401D8
S11300500C9414010C9414010C9414010C941401C8
S11300600C9414010C941401524553554D45005001
S113007041555345004C4541444552424F41524439
S11300805F454E44004C4541444552424F41524421
S11300905F535441525400476F6F64627965212065
S11300A05468616E6B7320666F7220706C6179693D
S11300B06E67204265617420446F776E2E0053484A
S11300C04F575F4D454E550053454E534F525F4475
S11300D0454255475F454E440053454E534F525F8A
S11300E044454255475F5354415254002062656170
S11300F074732072656164792E0042656174206DA9
S11301006170206C6F6164656421005245414459FB
S11301105F464F525F424541544D41500052656322
S11301206F7264696E6720636F6D706C65746521AE
S11301300052004D004C00536F6E6720656E64657D
S113014064206561726C7920627920686F73742E03
S113015000536F6E6720656E6473206175746F6DF4
S113016061746963616C6C79207768656E204D41B8
S1130170585F424541545320726561636865642E3B
S1130180005265636F7264696E6721205461702048
S1130190616C6F6E6720746F2074686520736F6E76
S11301A0672E00535441525400424541544D41502E
S11301B05F454E4400424541544D41505F535441C4
S11301C0525400456E74657220696E697469616C7D
S11301D0733A20005354415254004E6F20626561BB
S11301E074206D6170206C6F616465642E0011244D
S11301F01FBECFEFD8E0DEBFCDBF12E0A0E0B1E07C
S1130200E8EBF6E202C005900D92A638B107D9F7E3
S113021026E0A6E8B2E001C01D92AD3DB207E1F7C9
S11302200E94990D0C945A130C94000080E480935E
S11302307C00EAE7F0E080818068808380818760C9
S1130240808308958770ECE7F0E09081907F892B9C
S11302508083EAE7F0E080818064808380917A0083
S113026086FDFCCF8091780090917900089580E01C
S11302700E942201863521E0920730F08B3A9240A9
S113028030F486E490E008958AE590E0089582E3EE
S113029090E0089581E00E942201883C910520F5B8
S11302A02091A102222321F02091A1022130E1F426
S11302B082E08093A1028FE690E00E94A90E8BB1A8
S11302C080688BB98BB18F7B8BB980E80E941E0D3F
S11302D086E091E00E940B0D80EC0E941E0D87E1E8
S11302E091E00E940B0D0895893C9105F0F08091F6
S11302F0A1028230D1F41092A10288E690E00E941B
S1130300A90E8BB18F778BB98BB180648BB980E8E0
S11303100E941E0D88E291E00E940B0D80EC0E9469
S11303201E0D89E391E00E940B0D089590938702BE
S1130330809386028DB38C7F8DBBEDE6F0E08081E7
S11303408F7E80831092B200E1EBF0E080818760C1
S11303508083E0E7F0E08081826080830895FC017F
S1130360A1EBB0E09C91987F9C93A0E7B0E09C91B6
S11303709D7F9C938081813019F482E0808304C046
S11303808081833009F410828DB383608DBBEDE6E8
S1130390F0E0808180618083E8E6F0E08081846021
S11303A0808308950F931F93CF93DF93EB018A010A
S11303B029B130E0082E02C0359527950A94E2F75A
S11303C020FD0BC09881911108C0CB010E949601B9
S11303D081E08883F801808312C029B130E0A9014B
S11303E002C0559547958A95E2F740FF08C0888179
S11303F0823029F4CE010E94960183E08883DF9144
S1130400CF911F910F9108958AB1837E8AB98BB1E0
S11304108C618BB9E9E6F0E08081856080838DB3DF
S113042083608DBBEDE6F0E0808180618083E8E647
S1130430F0E0808184608083E0EBF0E08081826082
S1130440808389EE8093B30008951F920F920FB6B4
S11304500F9211242F933F934F935F936F937F9346
S11304608F939F93AF93BF93EF93FF9380918602F3
S113047090918702892B51F0809186029091870296
S11304800E94AF011092870210928602FF91EF91B1
S1130490BF91AF919F918F917F916F915F914F9198
S11304A03F912F910F900FBE0F901F9018951F92A0
S11304B00F920FB60F9211242F933F934F935F9394
S11304C06F937F938F939F93AF93BF93EF93FF9318
S11304D04AE852E06DE872E082E00E94D201809125
S11304E0A102813011F40E94E203FF91EF91BF91C8
S11304F0AF919F918F917F916F915F914F913F91B8
S11305002F910F900FBE0F901F9018951F920F926E
S11305100FB60F9211242F933F934F935F936F93D2
S11305207F938F939F93AF93BF93EF93FF9349E888
S113053052E06CE872E083E00E94D2018091A10253
S1130540813011F40E94E203FF91EF91BF91AF91CA
S11305509F918F917F916F915F914F913F912F91D7
S11305600F900FBE0F901F9018951F920F920FB609
S11305700F9211242F933F934F935F936F937F9325
S11305808F939F93AF93BF93EF93FF9348E852E009
S11305906BE872E084E00E94D2018091A102813074
S11305A011F40E94E203FF91EF91BF91AF919F91EB
S11305B08F917F916F915F914F913F912F910F9008
S11305C00FBE0F901F9018958EEB90E00E94A90E1D
S11305D0089587E990E00E94A90E0895AF92BF9212
S11305E0DF92EF92FF920F931F93CF93DF93CDB7D8
S11305F0DEB7CC54D1090FB6F894DEBF0FBECDBF21
S113060085E890E00E94A90ED12C38C00D2D10E091
S1130610C801880F991F880F991F880F991F9C0183
S113062029553D4F7901F90164817581868197814E
S11306302AE0AE014F5F5F4F5A010E94B00FBF9294
S1130640AF92FF92EF920F5F1F4F1F930F9386E7B6
S113065091E09F938F931F9280E48F938E01035FA9
S11306601F4F1F930F930E94FB0FC8010E94960E09
S1130670D3940FB6F894DEBF0FBECDBF98E09D159E
S113068028F685E790E00E94A90E80EC0E941E0DDA
S113069086E691E00E940B0DC45BDF4F0FB6F89421
S11306A0DEBF0FBECDBFDF91CF911F910F91FF90A1
S11306B0EF90DF90BF90AF900895FF920F931F9338
S11306C0CF93DF93CDB7DEB7CC54D1090FB6F894EE
S11306D0DEBF0FBECDBFF42E8E010F5B1F4F2AE08D
S11306E0A8010E94B00F1F92FF921F930F9389E8F5
S11306F091E09F938F931F9280E48F93005411098C
S11307001F930F930E94FB0FC8010E94960E80EC6A
S11307100E941E0D86E691E00E940B0D0FB6F89420
S1130720DEBF0FBECDBFC45BDF4F0FB6F894DEBF94
S11307300FBECDBFDF91CF911F910F91FF90089510
S11307401F93CF93DF93EC0187E40E948F0E82E521
S11307500E948F0E89E40E948F0E84E40E948F0E03
S11307608AE30E948F0E10E021C0E12FF0E0CF0158
S1130770880F991FE80FF91FEC0FFD1F208130E04F
S1130780A901440F551F440F551F9181292F30E0B3
S1130790220F331F8281242B822B805D0E948F0EB7
S11307A0173018F48CE20E948F0E1F5F1830E8F2A5
S11307B08DE00E948F0E8AE00E948F0EDF91CF9110
S11307C01F910895CF92DF92EF92FF92CF93DF9320
S11307D0CDB7DEB7A0970FB6F894DEBF0FBECDBF7E
S11307E0F8948091A3029091A402A091A502B091E3
S11307F0A6027894409190025091910260919202E5
S113080070919302841B950BA60BB70B3AF4B09529
S1130810A095909581959F4FAF4FBF4F80939802BD
S113082090939902A0939A02B0939B020E9437017D
S11308306C01E12CF12C8091980290919902A09185
S11308409A02B0919B02C816D906EA06FB0608F480
S1130850D3C0209198023091990240919A0250910C
S11308609B02A4E6B0E00E942F0FA70196010E940C
S11308700D0F84E6821B90910501899FC00111240C
S11308804091940250919502609196027091970262
S1130890092E000CAA0BBB0B840F951FA61FB71FB4
S11308A08093940290939502A0939602B09397023A
S11308B08091A0028F5F8093A0028091A0028E316C
S11308C078F084E0809305018091A0028E31C0F11C
S11308D080919E028823A1F188E08093050130C0B5
S11308E08091A002843178F083E0809305018091A7
S11308F0A002843128F180919E02882309F186E0C8
S1130900809305011DC08091A0028A3078F082E0B6
S1130910809305018091A0028A3090F080919E021C
S1130920882371F084E0809305010AC081E08093FC
S1130930050180919E02882319F082E080930501CD
S11309406091940270919502809196029091970221
S11309502AE0AE014F5F5F4F0E94B00F8091A0026A
S11309604AE0BE01675E7F4F90E00E94A50F809130
S113097005014AE0BE016F5E7F4F90E00E94A50F23
S113098089E991E00E94BE0ECE0101960E94BE0E3E
S11309908CE20E948F0ECE0149960E94BE0E8CE21C
S11309A00E948F0ECE0141960E94BE0E8AE00E94E4
S11309B08F0E8BB18F7B8BB98BB18F778BB98BB14A
S11309C080648BB98091A002882351F081E08093E8
S11309D09F0280EC0E941E0D8EE991E00E940B0D97
S11309E080910401833008F04FC0E0910401F0E0ED
S11309F0EB53F94F158A48C01092A00281E080930E
S1130A00050110929F0210929E02609194027091CF
S1130A10950280919602909197022AE0AE014F5F71
S1130A205F4F0E94B00F8091A0024AE0BE01675E52
S1130A307F4F90E00E94A50F809105014AE0BE011E
S1130A406F5E7F4F90E00E94A50F89E991E00E94BC
S1130A50BE0ECE0101960E94BE0E8CE20E948F0E45
S1130A60CE0149960E94BE0E8CE20E948F0ECE01EA
S1130A7041960E94BE0E8AE00E948F0E8BB1806860
S1130A808BB98BB18F7B8BB9E1E8F0E080818A7FF1
S1130A90808310928500109284001092A102A09687
S1130AA00FB6F894DEBF0FBECDBFDF91CF91FF909C
S1130AB0EF90DF90CF9008958F929F92AF92BF9264
S1130AC0EF92FF921F93CF93DF93CDB7DEB7A0973A
S1130AD00FB6F894DEBF0FBECDBF85EB91E00E9448
S1130AE0A90EE12CF12C812C912C54012EC0F7017C
S1130AF0EE0FFF1FE151FD4F808191819C013F73F7
S1130B0084E0989F812D99271124182F1370820E49
S1130B10931EA11CB11C2AE045EA56E0C501B401AC
S1130B200E94B00F4AE0BE016F5F7F4F812F90E0BB
S1130B300E94A50FAE014F5F5F4F6CE285EA96E01D
S1130B400E94D20E8FEFE81AF80A80918E029091DB
S1130B508F02E816F90658F289EA91E00E94A90E7C
S1130B60A0960FB6F894DEBF0FBECDBFDF91CF9134
S1130B701F91FF90EF90BF90AF909F908F9008953A
S1130B80CF92DF92EF92FF9210928F0210928E0218
S1130B9083EA91E00E94A90E80E80E941E0D8EEA6D
S1130BA091E00E940B0D80EC0E941E0D8FEB91E0F2
S1130BB00E940B0D81E891E00E94A90E81E591E06D
S1130BC00E94A90EF8941092A3021092A40210920B
S1130BD0A5021092A6027894C12CD12C760171C082
S1130BE08091C00088235CF48091C600833711F0A3
S1130BF0833529F487E391E00E94A90E6AC08091AD
S1130C008A02882349F010928A0285E391E00E94C7
S1130C10A90E20E081E01CC080918802882349F05D
S1130C201092880283E391E00E94A90E21E081E002
S1130C300FC080918902882349F01092890281E3D0
S1130C4091E00E94A90E22E081E002C020E080E051
S1130C508823B9F14091A3025091A4026091A502A6
S1130C607091A602DB01CA018C199D09AE09BF0966
S1130C70811530E49307A105B10520F08FEF9FE3C0
S1130C80A0E0B0E030E030E4239F302D222711248F
S1130C909F73822B932B20918E0230918F02F90146
S1130CA0EE0FFF1FE151FD4F918380832F5F3F4F74
S1130CB030938F0220938E028BB180648BB96A01CA
S1130CC07B0180918E0290918F028B3D914008F4BC
S1130CD087CF0E945C058DE191E00E94A90E80E817
S1130CE00E941E0D80ED91E00E940B0DFF90EF908D
S1130CF0DF90CF9008954F925F926F927F928F9280
S1130D009F92AF92BF92CF92DF92EF92FF921F9386
S1130D10CF93DF93CDB7DEB7A1970FB6F894DEBFBC
S1130D200FBECDBF10928F0210928E028BE091E025
S1130D300E94A90EC12CD12C760110E003C010E052
S1130D4001C010E00E94CB0E8D30E1F38A3009F02F
S1130D5087C0E1E0F0E0EC0FFD1FE10FF11D108210
S1130D6089818C3451F48A818F3439F48B818134B4
S1130D7021F48C81843409F482C040918E02509114
S1130D808F024B3D31E05307D0F660E0812C912C6B
S1130D9054011EC0880C991CAA1CBB1C24013501DB
S1130DA0440C551C661C771C440C551C661C771C93
S1130DB0840C951CA61CB71C30E0C901C097092EF1
S1130DC0000CAA0BBB0B880E991EAA1EBB1E6F5FDC
S1130DD0E1E0F0E0EC0FFD1FE60FF11D20812C3265
S1130DE011F02111D7CF2C3209F46F5FE1E0F0E06C
S1130DF0EC0FFD1FE60FF11D808120ED280F23303D
S1130E0028F02FEC280F233008F09BCFD501C40124
S1130E108C199D09AE09BF09811530E49307A1051A
S1130E20B10520F08FEF9FE3A0E0B0E030E030E4C4
S1130E30239F302D222711249F73822B932BFA0199
S1130E40EE0FFF1FE151FD4F918380834F5F5F4F92
S1130E5050938F0240938E027501640110E072CFAB
S1130E601F3108F06FCFE1E0F0E0EC0FFD1FE10F60
S1130E70F11D80831F5F66CF8091C60089A3809196
S1130E80C0008823CCF38AEF90E00E94A90E4AE0C8
S1130E9065EA76E080918E0290918F020E94A50F00
S1130EA085EA96E00E94960E8CEE90E00E94A90ED0
S1130EB0A1960FB6F894DEBF0FBECDBFDF91CF91E0
S1130EC01F91FF90EF90DF90CF90BF90AF909F90D5
S1130ED08F907F906F905F904F9008956EEB80E0BD
S1130EE090E00E94EE1248E450E061E070E087EA8E
S1130EF092E00E94E412089580E090E00E94DC12E7
S1130F008E3BB1F419C0E82FF0E0EE0FFF1FEE0F97
S1130F10FF1FEE0FFF1FE955FD4F14821582168245
S1130F2017829DE290839183928313828F5F01C025
S1130F3080E0893040F3089548E450E061E070E0D7
S1130F4087EA92E00E94CC120895CF93DF9300D0F9
S1130F50CDB7DEB703C08091C6008A838091C000FC
S1130F608823CCF30E94CB0E03C08091C6008983F2
S1130F708091C0008823CCF30F900F90DF91CF9124
S1130F80089580E190E00E947B0E0E94360D0E943D
S1130F9004020E94410E0E9416010E94E70D80E0A7
S1130FA014C0E82FF0E0EE0FFF1FEE0FFF1FEE0F4F
S1130FB0FF1FE955FD4F14821582168217829DE2A8
S1130FC090839183928313828F5F893050F3809151
S1130FD08400909185000E949A0F78948AB180646D
S1130FE08AB98AB180688AB90E947C070E947B060C
S1130FF00E94A50780E80E941E0D81EE91E00E94E8
S11310000B0D80EC0E941E0D82EF91E00E940B0DEF
S11310100895CF92DF92EF92FF920F931F93CF9395
S1131020DF93CDB7DEB7E1970FB6F894DEBF0FBEFE
S1131030CDBF89ED90E00E94A90E03C08091C60047
S113104089AB8091C0008823CCF38091C0008823B1
S113105044F48091C600898388EC90E00E94A90E34
S113106043C00E94E40D6C0180E00E9422017C01D7
S113107081E00E9422018C014AE0BE016F5D7F4F36
S1131080C6010E94A50F4AE0BE016F5E7F4FC701F3
S11310900E94A50F4AE0BE016F5F7F4FC8010E9406
S11310A0A50F83E092E00E94BE0ECE0181960E94BD
S11310B0BE0E8CE20E948F0ECE0141960E94BE0E9F
S11310C08CE20E948F0ECE0101960E94BE0E8AE031
S11310D00E948F0E2FEF81EE94E0215080409040CB
S11310E0E1F700C00000B1CFE1960FB6F894DEBF7F
S11310F00FBECDBFDF91CF911F910F91FF90EF9065
S1131100DF90CF900895CF93DF930E94E402DFEF46
S113111080E00E942201863521E0920728F08B3A74
S1131120924020F4C1E003C0C0E001C0C2E0DC177B
S1131130C9F0C13051F018F0C23069F012C08BE030
S113114092E00E94960EDC2F0DC08BE192E00E948B
S1131150960EDC2F07C08DE292E00E94960EDC2FE3
S113116001C0DC2F8091C000882344F58091C60023
S11311708333C9F028F4813341F0823349F01EC02F
S11311808433A1F08533B9F019C00E94E30920C06B
S113119010929D0210929C020E94EE020E94A507EA
S11311A00E94E4020BC00E94C00512C00E940908FC
S11311B00E94E4020DC00E94E9020AC08FEF90E78A
S11311C022E0815090402040E1F700C00000A0CF11
S11311D0DF91CF910895EF92FF920F931F93CF93D6
S11311E0DF9300D000D01F92CDB7DEB78BB18F77DD
S11311F08BB98BB18F7B8BB98091940290919502BE
S1131200A0919602B0919702892B8A2B8B2B39F4EB
S113121010929C020E94EE020E948308C8C01092A1
S11312209C0280E020C0E82FF0E0EE0FFF1FEE0FDD
S1131230FF1FEE0FFF1FE955FD4F04811581268125
S11312403781409194025091950260919602709179
S11312509702041715072607370720F481E08093C7
S11312609C0203C08F5F8930F0F240919C02609130
S113127094027091950280919602909197020E9437
S11312805D03F8940E94A507789480919C028823BA
S113129009F47BC083EC91E00E94A90E10E00EC01B
S11312A00E94CB0E8D3051F08A3041F0E1E0F0E045
S11312B0EC0FFD1FE10FF11D80831F5F133080F3DE
S11312C003C08091C6008D838091C0008823CCF335
S11312D088E056C0882319F1A82F082E000CBB0BF8
S11312E07D0191E0E91AF1089701220F331F220FC3
S11312F0331F220F331F29553D4FF90104811581F6
S11313002681378140919402509195026091960212
S1131310709197020417150726073707D0F04091FC
S1131320940250919502609196027091970298E010
S11313308902F0011124E955FD4F448355836683E6
S11313407783898180838A8181838B8182831382DD
S11313501AC0AA0FBB1FAA0FBB1FAA0FBB1FA955F8
S1131360BD4FF701EE0FFF1FEE0FFF1FEE0FFF1F24
S1131370E955FD4F98E001900D929A95E1F781505F
S113138088230CF0A7CF0E946E071092940210924B
S11313909502109296021092970210929C020E945B
S11313A0EE02F8940E94A50778940E9483080F9097
S11313B00F900F900F900F90DF91CF911F910F918D
S11313C0FF90EF9008952F923F924F925F926F9209
S11313D07F928F929F92AF92BF92CF92DF92EF92C1
S11313E0FF920F931F93CF93DF93CDB7DEB7AC97E4
S11313F00FB6F894DEBF0FBECDBF80918E029091E0
S11314008F02892B39F48AED91E00E94A90E0E9483
S1131410830894C21092A00281E080930501109287
S11314209D021092A1020E941E0D80E80E941E0DD2
S11314308DE392E00E940B0D2FEF33ED40E321503A
S113144030404040E1F700C0000080E80E941E0DDB
S11314508EE492E00E940B0D5FEF83ED90E3515018
S113146080409040E1F700C0000081E00E941E0D22
S113147080E80E941E0D8FE592E00E940B0D30E083
S113148012C0832F90E0FC01EE0FFF1FE80FF91F3D
S1131490EB53F94FE20FF11D10822F5F01C020E0E2
S11314A0233078F33F5F3830D0F384ED91E00E942D
S11314B0A90EF8941092A3021092A4021092A5020D
S11314C01092A6027894C12CD12C760119A61AA6E2
S11314D01BA61CA619A21AA21BA21CA200E010E0C3
S11314E0212C312C16C20E944A018091A102823023
S11314F009F40FC20E94130EF8944090A302509076
S1131500A4026090A5027090A602789480918A0249
S1131510811109C080918802811105C080918902DE
S1131520882309F482C080918A02882321F01092D2
S11315308A0290E011C080918802882321F01092E1
S1131540880291E009C080918902882321F01092D9
S1131550890292E001C09FEF8091A102813009F0DD
S113156064C080910401981303C00E94E2035DC02B
S11315701092A00281E08093050110929F021092C4
S11315809E026091940270919502809196029091CE
S113159097022AE0AE014F5F5F4F0E94B00F809127
S11315A0A0024AE0BE01675E7F4F90E00E94A50F53
S11315B0809105014AE0BE016F5E7F4F90E00E947A
S11315C0A50F89E991E00E94BE0ECE0101960E940A
S11315D0BE0E8CE20E948F0ECE0149960E94BE0E72
S11315E08CE20E948F0ECE0141960E94BE0E8AE0CC
S11315F00E948F0E8BB180688BB98BB18F7B8BB9B6
S113160080910401833030F4E0910401F0E0EB5365
S1131610F94F158AE1E8F0E080818A7F8083109297
S11316208500109284001092A102D301C20129A165
S11316303AA14BA15CA1821B930BA40BB50B84367E
S11316409105A105B10500F565C0E82F082E000C31
S1131650FF0BDF0111979D01220F331FA20FB31F50
S1131660AB53B94F9C919F01220F331FE20FF31F1D
S1131670EB53F94F908311969C9111979183129695
S11316809C919283815001C087E01816F4F2E5EC36
S1131690F6E01082118212822EC0F801EE0FFF1FB5
S11316A0E151FD4F808191819C013F7384E0989FBB
S11316B0812D992711248370B701A601420F531F6E
S11316C0611D711D5301420130E2830E33E0931E0C
S11316D0A11CB11C84169506A606B70698F08330A3
S11316E030F4E82FF0E0EB53F94F81E080830F5F93
S11316F01F4F6A017B0180918E0290918F0208171F
S1131700190758F285EC96E00E94A00349A25AA258
S11317106BA27CA280918E0290918F0228163906CA
S113172008F05CC0F101EE0FFF1FE151FD4F808115
S113173091819C013F7384E0989F812D9927112406
S1131740482F4370942E89A59AA5ABA5BCA5820FFA
S1131750931FA11DB11D8DA39EA3AFA3B8A70E9483
S113176037019C019091A1029130C1F1420E531EA8
S1131770611C711C2DA13EA14FA158A54216530610
S11317806406750658F19092040181E08093A102E9
S113179020939002309391024093920250939302CB
S11317A08BB180648BB94AE065EA76E0892D90E0DC
S11317B00E94A50F1092850010928400E1E8F0E0E9
S11317C08081856080833FEF231A330A8DA19EA117
S11317D0AFA1B8A589A79AA7ABA7BCA78091A1027E
S11317E0813009F096C06091840070918500CB012E
S11317F0A0E0B0E0880F991FAA1FBB1F880F991F94
S1131800AA1FBB1F880F991FAA1FBB1F880F991FF0
S1131810AA1FBB1FBC01CD01660F771F881F991F2C
S1131820660F771F881F991F20E83EE340E050E0D1
S11318300E940D0F29013A0180E00E94220128E252
S1131840DC012A9FC0012B9F900D11246FEF73E0E0
S11318500E94F90ECB01C296880F991FA0E0B0E058
S113186084159505A605B70508F053C0E1E8F0E036
S113187080818A7F80831092850010928400109268
S1131880A00281E08093050110929F0210929E02B3
S113189060919402709195028091960290919702C2
S11318A02AE0AE014F5F5F4F0E94B00F8091A0020B
S11318B04AE0BE01675E7F4F90E00E94A50F8091D1
S11318C005014AE0BE016F5E7F4F90E00E94A50FC4
S11318D089E991E00E94BE0ECE0101960E94BE0EDF
S11318E08CE20E948F0ECE0149960E94BE0E8CE2BD
S11318F00E948F0ECE0141960E94BE0E8AE00E9485
S11319008F0E8BB180688BB98BB18F7B8BB91092A2
S1131910A10280918E0290918F022816390620F040
S11319208091A102813029F480919D02882309F4D9
S1131930DACD81E080939D020E94EB08AC960FB64D
S1131940F894DEBF0FBECDBFDF91CF911F910F91F1
S1131950FF90EF90DF90CF90BF90AF909F908F90CB
S11319607F906F905F904F903F902F90089584B137
S1131970806284B984B1806184B984B1886084B997
S113198084B1846084B984B1826084B984B1816093
S113199084B9089595B19F7D95B988231CF495B1B8
S11319A0906295B995B19F7E95B986FF03C095B1B4
S11319B0906195B995B1977F95B985FF03C095B1AD
S11319C0986095B995B19B7F95B984FF03C085B1A3
S11319D0846085B985B1826085B985E08A95F1F71F
S11319E0000085B18D7F85B985E08A95F1F7000007
S11319F00895CF93C82F85B1816085B985B18D7F56
S1131A0085B98C2F0E94CA0C8C2F8295807F0E94EE
S1131A10CA0CCF910895CF93DF93EC0109C02196AE
S1131A200E94F90C8FE391E00197F1F700C00000E8
S1131A3088818111F4CFDF91CF910895CF93C82F7E
S1131A4085B18E7F85B985B18D7F85B98C2F0E9434
S1131A50CA0C8C2F8295807F0E94CA0C8FE391E080
S1131A600197F1F700C00000CF9108950E94B70CD0
S1131A702FEF81EE94E0215080409040E1F700C0C8
S1131A80000085B18E7F85B985B18D7F85B980E3EE
S1131A900E94CA0C8FE39CE90197F1F700C0000093
S1131AA080E30E94CA0C8FE193E00197F1F700C034
S1131AB0000080E30E94CA0C8FE193E00197F1F7E4
S1131AC000C0000088E20E94CA0C8FE391E00197F5
S1131AD0F1F700C0000088E20E941E0D8FE391E040
S1131AE00197F1F700C0000088E00E941E0D8FE30B
S1131AF091E00197F1F700C0000081E00E941E0D03
S1131B008FE79EE30197F1F700C0000086E00E9492
S1131B101E0D8FE391E00197F1F700C000008CE007
S1131B200E941E0D8FE391E00197F1F700C00000C1
S1131B3008950E94C1070E948308FDCF84EA809320
S1131B40BC008091BC008823E4F786EA8093BB0044
S1131B5084E88093BC008091BC008823E4F782E38E
S1131B608093BB0084E88093BC008091BC008823F0
S1131B70E4F784EA8093BC008091BC008823E4F7F6
S1131B8087EA8093BB0084E88093BC008091BC000A
S1131B908823E4F784EC8093BC008091BC00882304
S1131BA0E4F72091BB0084E88093BC008091BC00E2
S1131BB08823E4F78091BB0094E99093BC0090E003
S1131BC0982F8827822B08950E949E0D089588E4FB
S1131BD08093B80084EA8093BC008091BC00882381
S1131BE0E4F786EA8093BB0084E88093BC0080918C
S1131BF0BC008823E4F78DE28093BB0084E88093E3
S1131C00BC008091BC008823E4F788E08093BB008B
S1131C1084E88093BC008091BC008823E4F784E9C5
S1131C208093BC0008950E949E0D99231CF4919505
S1131C30819591098233910514F41092A20285369C
S1131C409105F4F08091A1028130D1F480919F023A
S1131C508823B1F08091A202811112C080919E026A
S1131C6081110EC081E08093A20210929F028093A2
S1131C709E0280EC0E941E0D80E792E00E940B0DF4
S1131C80089584B5826084BD99EF97BD85B583605E
S1131C9085BDEEE6F0E0808182608083E0EBF0E0D9
S1131CA08081826080839093B30008951F920F9285
S1131CB00FB60F9211248F939F93AF93BF9380918C
S1131CC0A3029091A402A091A502B091A60201964C
S1131CD0A11DB11D8093A3029093A402A093A50219
S1131CE0B093A602BF91AF919F918F910F900FBEB9
S1131CF00F901F9018959093C5008093C400E0EC5A
S1131D00F0E0808182608083E1ECF0E08081886192
S1131D108083E2ECF0E08081866080830895909176
S1131D20C00095FFFCCF8093C6000895CF93DF9346
S1131D30EC0103C00E948F0E219688818111FACF95
S1131D408DE00E948F0E8AE00E948F0EDF91CF916A
S1131D500895CF93DF93FC0103C00E948F0EFE0110
S1131D60EF01219684918111F8CF8DE00E948F0EAE
S1131D708AE00E948F0EDF91CF910895CF93DF9375
S1131D80EC0103C021960E948F0E88818111FACF45
S1131D90DF91CF9108958091C0008823E4F780916A
S1131DA0C6000895FF920F931F93CF93DF938C0186
S1131DB0F62EEA0104C00F5F1F4F0E948F0EF80138
S1131DC080818111F8CF8F2D0E948F0E03C0219640
S1131DD00E948F0E88818111FACF8DE00E948F0EB0
S1131DE08AE00E948F0EDF91CF911F910F91FF9097
S1131DF00895AA1BBB1B51E107C0AA1FBB1FA6174E
S1131E00B70710F0A61BB70B881F991F5A95A9F79F
S1131E1080959095BC01CD010895A1E21A2EAA1BCC
S1131E20BB1BFD010DC0AA1FBB1FEE1FFF1FA21786
S1131E30B307E407F50720F0A21BB30BE40BF50B83
S1131E40661F771F881F991F1A9469F7609570950C
S1131E50809590959B01AC01BD01CF0108950E942E
S1131E603A0FA59F900DB49F900DA49F800D911DD6
S1131E7011240895A29FB001B39FC001A39F700DC8
S1131E80811D1124911DB29F700D811D1124911D7E
S1131E9008958F929F92AF92BF92CF92DF92EF926A
S1131EA0FF92CF93DF93EC01688179818A819B81D2
S1131EB0611571058105910521F464E279ED8BE5E5
S1131EC097E02DE133EF41E050E00E94FC1249011C
S1131ED05A019B01AC01A7EAB1E40E942F0F6B01E8
S1131EE07C01ACEEB4EFA50194010E941E13DC0149
S1131EF0CB018C0D9D1DAE1DBF1DB7FF03C0019707
S1131F00A109B04888839983AA83BB839F77DF9113
S1131F10CF91FF90EF90DF90CF90BF90AF909F90C4
S1131F208F9008950E94490F089580E091E00E94E7
S1131F30490F0895A0E0B0E080930001909301015F
S1131F40A0930201B09303010895BB274A3031F4F2
S1131F50992322F4BDE2909581959F4F0C94E20F52
S1131F60BB272A3051F4992342F4BDE29095809521
S1131F70709561957F4F8F4F9F4F0C94C00FBB2777
S1131F80FA01A62F6217710581059105330B30FB09
S1131F9066F0AA27660F771F881F991FAA1FA2172A
S1131FA010F0A21B63953850A9F7A05DAA3308F07E
S1131FB0A95DA19336F7B111B1931082CA010C94B3
S1131FC02212BB27FB015527AA27880F991FAA1F96
S1131FD0A41710F0A41B83955051B9F7A05DAA3340
S1131FE008F0A95DA193009779F7B111B19311920B
S1131FF0CB010C942212AEE0B0E0E1E0F0E10C94ED
S113200031130D891E898F89988D26E02C831A83BC
S1132010098397FF02C080E090E801979E838D8337
S1132020AE01455E5F4F698D7A8DCE0101960E94A7
S11320302B104D815E8157FD0AC02F8138854217D0
S113204053070CF49A01F801E20FF31F10822E9645
S1132050E4E00C944D13ABE0B0E0E1E3F0E10C9468
S113206023136C017B018A01FC0117821682838190
S113207081FFCCC1CE0101963C01F6019381F701A9
S113208093FD859193FF81917F01882309F4BAC15F
S1132090853239F493FD859193FF81917F018532D7
S11320A029F4B60190E00E943212E7CF912C212C42
S11320B0312CFFE1F315D8F08B3279F038F480320B
S11320C079F08332A1F4232D20611DC08D3261F09B
S11320D0803369F4232D216016C0832D8260382E4D
S11320E0E32DE4603E2E2AC0F32DF8601DC037FCBA
S11320F02DC020ED280F2A3040F08E32B9F436FC82
S113210081C1232D2064322E19C036FE06C08AE018
S1132110989E200D1124922E11C0EAE02E9E200DCF
S11321201124222EF32DF0623F2E08C08C3621F4A8
S1132130832D8068382E02C0883641F4F70193FD60
S1132140859193FF81917F018111B3CF982F9F7D5A
S11321509554933028F40C5F1F4F9FE399830DC06F
S1132160833631F0833771F0833509F059C021C0CB
S1132170F801808189830E5F1F4F88248394912CFA
S1132180530113C02801F2E04F0E511CF801A08046
S1132190B18036FE03C0692D70E002C06FEF7FEF9F
S11321A0C5010E9417124C018201F32DFF773F2EC7
S11321B016C0280122E0420E511CF801A080B18013
S11321C036FE03C0692D70E002C06FEF7FEFC501DA
S11321D00E940C124C01F32DF0683F2E820133FC57
S11321E01BC0822D90E088169906B0F4B60180E2F7
S11321F090E00E9432122A94F4CFF50137FC8591C5
S113220037FE81915F01B60190E00E9432122110E5
S11322102A9421E0821A91088114910471F7E8C08C
S1132220843611F0893641F5F80137FE07C0608124
S11322307181828193810C5F1F4F08C0608171811D
S1132240072E000C880B990B0E5F1F4FF32DFF76A2
S11322503F2E97FF09C090958095709561957F4FAB
S11322608F4F9F4FF0683F2E2AE030E0A3010E9479
S11322706E12882E861845C0853731F4232D2F7EA3
S1132280B22E2AE030E025C0932D997FB92E8F36E7
S1132290C1F018F4883579F0B5C0803719F0883763
S11322A021F0B0C0E92FE061BE2EB4FE0DC0FB2DBD
S11322B0F460BF2E09C034FE0AC0292F2660B22E56
S11322C006C028E030E005C020E130E002C020E193
S11322D032E0F801B7FE07C0608171818281938189
S11322E00C5F1F4F06C06081718180E090E00E5F3B
S11322F01F4FA3010E946E12882E8618FB2DFF77B4
S11323003F2E36FE0DC0232D2E7FA22E891458F4A5
S113231034FE0BC032FC09C0832D8E7EA82E05C06E
S1132320B82CA32C03C0B82C01C0B92CA4FE0FC038
S1132330FE01E80DF11D8081803321F49A2D997EF0
S1132340A92E09C0A2FE06C0B394B39404C08A2D7A
S1132350867809F0B394A3FC11C0A0FE06C0B214A1
S113236088F4280C922C9B180EC0B21460F4B601A9
S113237080E290E00E943212B394F7CFB21418F4C2
S11323802B1802C0982C212CA4FE10C0B60180E3A7
S113239090E00E943212A2FE17C0A1FC03C088E79D
S11323A090E002C088E590E0B6010CC08A2D8678E2
S11323B059F0A1FE02C08BE201C080E2A7FC8DE2CD
S11323C0B60190E00E943212891438F4B60180E319
S11323D090E00E9432129A94F7CF8A94F301E80DA8
S11323E0F11D8081B60190E00E9432128110F5CF78
S11323F0222009F442CEB60180E290E00E9432121B
S11324002A94F6CFF6018681978102C08FEF9FEF61
S11324102B96E2E10C943F13FC010590615070404F
S11324200110D8F7809590958E0F9F1F0895FC0199
S11324306150704001900110D8F7809590958E0FEF
S11324409F1F0895DC01FC01672F71917723E1F749
S1132450329704C07C916D9370836291AE17BF076D
S1132460C8F308950F931F93CF93DF93FB01238148
S113247021FD03C08FEF9FEF2CC022FF16C04681C1
S11324805781248135814217530744F4A081B181D7
S11324909D012F5F3F4F318320838C9326813781A9
S11324A02F5F3F4F3783268314C08B01EC01FB0160
S11324B00084F185E02D0995892BE1F6D801169663
S11324C08D919C911797019617969C938E931697CE
S11324D0CE01DF91CF911F910F910895FA01AA27A0
S11324E0283051F1203181F1E8946F936E7F6E5F53
S11324F07F4F8F4F9F4FAF4FB1E03ED0B4E03CD001
S1132500670F781F891F9A1FA11D680F791F8A1FE3
S1132510911DA11D6A0F711D811D911DA11D20D04A
S113252009F468943F912AE0269F11243019305D04
S11325303193DEF6CF010895462F4770405D4193F5
S1132540B3E00FD0C9F7F6CF462F4F70405D4A3342
S113255018F0495D31FD4052419302D0A9F7EACF0A
S1132560B4E0A6959795879577956795BA95C9F739
S113257000976105710508959B01AC010A2E06942C
S11325805795479537952795BA95C9F7620F731FE5
S1132590841F951FA01D0895DC01CB01FC01F9994E
S11325A0FECF06C0F2BDE1BDF89A319600B40D929B
S11325B041505040B8F70895F999FECF92BD81BDBE
S11325C0F89A992780B50895DC01CB0103C02D91B9
S11325D00E94EF1241505040D0F70895262FF999E8
S11325E0FECF1FBA92BD81BD20BD0FB6F894FA9AF2
S11325F0F99A0FBE01960895052E97FB1EF40094D8
S11326000E94131357FD07D00E940D0F07FC03D03F
S11326104EF40C94131350954095309521953F4FEB
S11326204F4F5F4F089590958095709561957F4FBA
S11326308F4F9F4F0895B7FF0C942F0F0E942F0FB9
S1132640821B930B08952F923F924F925F926F9249
S11326507F928F929F92AF92BF92CF92DF92EF922E
S1132660FF920F931F93CF93DF93CDB7DEB7CA1BAF
S1132670DB0B0FB6F894DEBF0FBECDBF09942A88DA
S1132680398848885F846E847D848C849B84AA8482
S1132690B984C884DF80EE80FD800C811B81AA810F
S11326A0B981CE0FD11D0FB6F894DEBF0FBECDBFDA
S10B26B0ED010895F894FFCF39
S11326B801000000FF0120202D2D205041555345D5
S11326C844202D2D20200020556E636F76657220DE
S11326D873656E736F72200020202D2D2052554E85
S11326E84E494E47202D2D20002020202020202038
S11326F82020202020202020200052617720506FA5
S113270874656E74696F6D657465722056616C7555
S1132718653A20257500507265737320616E7920BF
S11327286B65792E2E0053434F52455F524F573AEB
S113273825753A25733A25730047414D455F4F5631
S113274845523A25733A2575004855443A00504F86
S11327585745522D55502052454144592100205285
S113276865636F7264696E672E2E2E202020004CDC
S11327783D6C6674204D3D6D696420523D72740051
S11327885265636F7264696E6720646F6E65212099
S11327980020546865204265617420446F776E2177
S11327A82000507265737320746F2073746172749F
S11327B821200053454E534F523A00444946464956
S11327C843554C54593A454153590044494646499E
S11327D843554C54593A4D454449554D004449468E
S11327E8464943554C54593A484152440020202004
S11327F82052656164792E2E2E202020200020206E
S1132808332E2E2E20322E2E2E20312E2E20002036
S113281820474F2120474F2120474F2120202000C7
S113282820202A2A20325820414354495645202A38
S10928382A20202000000C
S9030000FC
