:100000000C94F1000C9405020C9434020C940E0133
:100010000C940E010C9463020C940E010C94D30109
:100020000C940E010C940E010C940E010C940E0114
:100030000C940E010C940E010C94EC0D0C940E011A
:100040000C940E010C940E010C940E010C940E01F4
:100050000C940E010C940E010C940E010C940E01E4
:100060000C940E010C940E014C4541444552424FF4
:100070004152445F454E44004C4541444552424F35
:100080004152445F535441525400476F6F64627948
:100090006521205468616E6B7320666F7220706CEE
:1000A0006179696E67204265617420446F776E2EB6
:1000B0000053484F575F4D454E550053454E534FE3
:1000C000525F44454255475F454E440053454E53A9
:1000D0004F525F44454255475F53544152540020AC
:1000E00062656174732072656164792E0042656196
:1000F00074206D6170206C6F6164656421005245ED
:100100004144595F464F525F424541544D41500072
:100110005265636F7264696E6720636F6D706C65A2
:100120007465210052004D004C00536F6E672065CE
:100130006E646564206561726C7920627920686FF5
:1001400073742E00536F6E6720656E647320617543
:10015000746F6D61746963616C6C79207768656E2A
:10016000204D41585F424541545320726561636898
:1001700065642E005265636F7264696E6721205456
:10018000617020616C6F6E6720746F2074686520E9
:10019000736F6E672E0053544152540042454154D0
:1001A0004D41505F454E4400424541544D41505FE2
:1001B000535441525400456E74657220696E6974DF
:1001C00069616C733A20005354415254004E6F20C1
:1001D00062656174206D6170206C6F616465642E6E
:1001E000000011241FBECFEFD8E0DEBFCDBF12E06C
:1001F000A0E0B1E0ECEBF5E202C005900D92A63272
:10020000B107D9F726E0A6E2B2E001C01D92AD37F2
:10021000B207E1F70E94320D0C94DC120C9400003E
:1002200080E480937C00EAE7F0E08081806880834E
:1002300080818760808308958770ECE7F0E090818B
:10024000907F892B8083EAE7F0E08081806480835F
:1002500080917A0086FDFCCF8091780090917900A2
:10026000089580E00E941C01863521E0920730F05D
:100270008B3A924030F486E490E008958AE590E06D
:10028000089582E390E008959093270280932602D8
:100290008DB38C7F8DBBEDE6F0E080818F7E808317
:1002A0001092B200E1EBF0E0808187608083E0E7AC
:1002B000F0E08081826080830895FC01A1EBB0E0D2
:1002C0009C91987F9C93A0E7B0E09C919D7F9C932C
:1002D0008081813019F482E0808304C08081833082
:1002E00009F410828DB383608DBBEDE6F0E0808170
:1002F00080618083E8E6F0E08081846080830895F7
:100300000F931F93CF93DF93EB018A0129B130E064
:10031000082E02C0359527950A94E2F720FD0BC000
:100320009881911108C0CB010E94440181E088832B
:10033000F801808312C029B130E0A90102C05595AF
:1003400047958A95E2F740FF08C08881823029F4FA
:10035000CE010E94440183E08883DF91CF911F91F9
:100360000F9108958AB1837E8AB98BB18C618BB964
:10037000E9E6F0E08081856080838DB383608DBB8A
:10038000EDE6F0E0808180618083E8E6F0E0808146
:1003900084608083E0EBF0E080818260808389EE7E
:1003A0008093B30008951F920F920FB60F921124FD
:1003B0002F933F934F935F936F937F938F939F936D
:1003C000AF93BF93EF93FF93809126029091270202
:1003D000892B51F080912602909127020E945D01A5
:1003E0001092270210922602FF91EF91BF91AF91D8
:1003F0009F918F917F916F915F914F913F912F913D
:100400000F900FBE0F901F9018951F920F920FB66E
:100410000F9211242F933F934F935F936F937F938A
:100420008F939F93AF93BF93EF93FF934AE252E072
:100430006DE272E082E00E94800180914102813091
:1004400011F40E949003FF91EF91BF91AF919F91A2
:100450008F917F916F915F914F913F912F910F906D
:100460000FBE0F901F9018951F920F920FB60F920C
:1004700011242F933F934F935F936F937F938F93A9
:100480009F93AF93BF93EF93FF9349E252E06CE2E7
:1004900072E083E00E94800180914102813011F47A
:1004A0000E949003FF91EF91BF91AF919F918F9127
:1004B0007F916F915F914F913F912F910F900FBE60
:1004C0000F901F9018951F920F920FB60F92112444
:1004D0002F933F934F935F936F937F938F939F934C
:1004E000AF93BF93EF93FF9348E252E06BE272E069
:1004F00084E00E94800180914102813011F40E94C9
:100500009003FF91EF91BF91AF919F918F917F9158
:100510006F915F914F913F912F910F900FBE0F9070
:100520001F90189581EB90E00E943F0E08958AE895
:1005300090E00E943F0E0895AF92BF92DF92EF923B
:10054000FF920F931F93CF93DF93CDB7DEB7CC54B9
:10055000D1090FB6F894DEBF0FBECDBF88E790E09B
:100560000E943F0ED12C38C00D2D10E0C801880F1D
:10057000991F880F991F880F991F9C01295B3D4F78
:100580007901F90164817581868197812AE0AE0144
:100590004F5F5F4F5A010E94320FBF92AF92FF929E
:1005A000EF920F5F1F4F1F930F9386E091E09F9391
:1005B0008F931F9280E48F938E01035F1F4F1F93D1
:1005C0000F930E947D0FC8010E942C0ED3940FB68A
:1005D000F894DEBF0FBECDBF98E09D1528F688E6E3
:1005E00090E00E943F0E80EC0E94B70C89E191E000
:1005F0000E94A40CC45BDF4F0FB6F894DEBF0FBEA1
:10060000CDBFDF91CF911F910F91FF90EF90DF90C1
:10061000BF90AF900895FF920F931F93CF93DF93F6
:10062000CDB7DEB7CC54D1090FB6F894DEBF0FBEFC
:10063000CDBFF42E8E010F5B1F4F2AE0A8010E9450
:10064000320F1F92FF921F930F9389E291E09F93C5
:100650008F931F9280E48F93005411091F930F937F
:100660000E947D0FC8010E942C0E80EC0E94B70CE6
:1006700089E191E00E94A40C0FB6F894DEBF0FBE92
:10068000CDBFC45BDF4F0FB6F894DEBF0FBECDBF4A
:10069000DF91CF911F910F91FF9008951F93CF93FA
:1006A000DF93EC0187E40E94250E82E50E94250E6F
:1006B00089E40E94250E84E40E94250E8AE30E94AC
:1006C000250E10E021C0E12FF0E0CF01880F991F27
:1006D000E80FF91FEC0FFD1F208130E0A901440F46
:1006E000551F440F551F9181292F30E0220F331FD2
:1006F0008281242B822B805D0E94250E173018F4F6
:100700008CE20E94250E1F5F1830E8F28DE00E94F7
:10071000250E8AE00E94250EDF91CF911F9108954A
:10072000CF92DF92EF92FF92CF93DF93CDB7DEB7F8
:10073000A0970FB6F894DEBF0FBECDBFF89480919E
:10074000430290914402A0914502B09146027894F0
:100750004091300250913102609132027091330227
:10076000841B950BA60BB70B3AF4B095A09590950A
:1007700081959F4FAF4FBF4F8093380290933902BE
:10078000A0933A02B0933B020E9431016C01E12C2C
:10079000F12C8091380290913902A0913A02B091E7
:1007A0003B02C816D906EA06FB0608F4D3C020911E
:1007B00038023091390240913A0250913B02A4E64E
:1007C000B0E00E94B10EA70196010E948F0E84E650
:1007D000821B90910501899FC00111244091340230
:1007E000509135026091360270913702092E000C4B
:1007F000AA0BBB0B840F951FA61FB71F8093340253
:1008000090933502A0933602B09337028091400254
:100810008F5F80934002809140028E3178F084E0B7
:1008200080930501809140028E31C0F180913E029B
:100830008823A1F188E08093050130C080914002B7
:10084000843178F083E08093050180914002843107
:1008500028F180913E02882309F186E0809305010A
:100860001DC0809140028A3078F082E080930501BB
:10087000809140028A3090F080913E02882371F08E
:1008800084E0809305010AC081E080930501809196
:100890003E02882319F082E08093050160913402C2
:1008A0007091350280913602909137022AE0AE01B4
:1008B0004F5F5F4F0E94320F809140024AE0BE01BD
:1008C000675E7F4F90E00E94270F809105014AE00C
:1008D000BE016F5E7F4F90E00E94270F89E391E099
:1008E0000E94540ECE0101960E94540E8CE20E948A
:1008F000250ECE0149960E94540E8CE20E94250ED0
:10090000CE0141960E94540E8AE00E94250E8BB1C2
:100910008F7B8BB98BB18F778BB98BB180648BB99F
:1009200080914002843150F081E080933F0280EC5E
:100930000E94B70C8EE391E00E94A40C8091040108
:10094000833008F04FC0E0910401F0E0EB59F94F1B
:10095000158A48C01092400281E0809305011092F0
:100960003F0210923E0260913402709135028091F4
:100970003602909137022AE0AE014F5F5F4F0E942E
:10098000320F809140024AE0BE01675E7F4F90E0E7
:100990000E94270F809105014AE0BE016F5E7F4FE4
:1009A00090E00E94270F89E391E00E94540ECE014F
:1009B00001960E94540E8CE20E94250ECE014996AB
:1009C0000E94540E8CE20E94250ECE0141960E9498
:1009D000540E8AE00E94250E8BB180688BB98BB1D2
:1009E0008F7B8BB9E1E8F0E080818A7F8083109271
:1009F00085001092840010924102A0960FB6F894E0
:100A0000DEBF0FBECDBFDF91CF91FF90EF90DF90A3
:100A1000CF9008958F929F92AF92BF92EF92FF92E4
:100A20001F93CF93DF93CDB7DEB7A0970FB6F8949F
:100A3000DEBF0FBECDBF88EA91E00E943F0EE12CE1
:100A4000F12C812C912C54012EC0F701EE0FFF1FC9
:100A5000E157FD4F808191819C013F7384E0989F15
:100A6000812D99271124182F1370820E931EA11C1B
:100A7000B11C2AE045E456E0C501B4010E94320FE2
:100A80004AE0BE016F5F7F4F812F90E00E94270FE9
:100A9000AE014F5F5F4F6CE285E496E00E94680E06
:100AA0008FEFE81AF80A80912E0290912F02E81633
:100AB000F90658F28CE991E00E943F0EA0960FB61D
:100AC000F894DEBF0FBECDBFDF91CF911F91FF9095
:100AD000EF90BF90AF909F908F900895CF92DF924C
:100AE000EF92FF9210922F0210922E0286E991E06F
:100AF0000E943F0E80E80E94B70C8EE491E00E94B5
:100B0000A40C80EC0E94B70C8FE591E00E94A40C2D
:100B100084E791E00E943F0E84E491E00E943F0E42
:100B2000F8941092430210924402109245021092DF
:100B300046027894C12CD12C760171C08091C000FE
:100B400088235CF48091C600833711F0833529F443
:100B50008AE291E00E943F0E6AC080912A028823B7
:100B600049F010922A0288E291E00E943F0E20E0B4
:100B700081E01CC080912802882349F0109228024D
:100B800086E291E00E943F0E21E081E00FC080915B
:100B90002902882349F01092290284E291E00E9400
:100BA0003F0E22E081E002C020E080E08823B9F11E
:100BB0004091430250914402609145027091460277
:100BC000DB01CA018C199D09AE09BF09811530E40A
:100BD0009307A105B10520F08FEF9FE3A0E0B0E0FF
:100BE00030E030E4239F302D222711249F73822B85
:100BF000932B20912E0230912F02F901EE0FFF1F4F
:100C0000E157FD4F918380832F5F3F4F30932F0239
:100C100020932E028BB180648BB96A017B01809195
:100C20002E0290912F028B3D914008F487CF0E94B5
:100C30000A0580E191E00E943F0E80E80E94B70C17
:100C400080E791E00E94A40CFF90EF90DF90CF909E
:100C500008954F925F926F927F928F929F92AF9280
:100C6000BF92CF92DF92EF92FF921F93CF93DF93C9
:100C7000CDB7DEB7A1970FB6F894DEBF0FBECDBFDC
:100C800010922F0210922E028EEF90E00E943F0EE3
:100C9000C12CD12C760110E003C010E001C010E09F
:100CA0000E94610E8D30E1F38A3009F087C0E1E0E7
:100CB000F0E0EC0FFD1FE10FF11D108289818C34F3
:100CC00051F48A818F3439F48B81813421F48C8101
:100CD000843409F482C040912E0250912F024B3D82
:100CE00031E05307D0F660E0812C912C54011EC0F6
:100CF000880C991CAA1CBB1C24013501440C551CF2
:100D0000661C771C440C551C661C771C840C951CB7
:100D1000A61CB71C30E0C901C097092E000CAA0B15
:100D2000BB0B880E991EAA1EBB1E6F5FE1E0F0E0B0
:100D3000EC0FFD1FE60FF11D20812C3211F0211167
:100D4000D7CF2C3209F46F5FE1E0F0E0EC0FFD1F2C
:100D5000E60FF11D808120ED280F233028F02FECC5
:100D6000280F233008F09BCFD501C4018C199D09B1
:100D7000AE09BF09811530E49307A105B10520F044
:100D80008FEF9FE3A0E0B0E030E030E4239F302D10
:100D9000222711249F73822B932BFA01EE0FFF1F42
:100DA000E157FD4F918380834F5F5F4F50932F0238
:100DB00040932E027501640110E072CF1F3108F0DC
:100DC0006FCFE1E0F0E0EC0FFD1FE10FF11D80833C
:100DD0001F5F66CF8091C60089A38091C0008823E1
:100DE000CCF38DEE90E00E943F0E4AE065E476E0A1
:100DF00080912E0290912F020E94270F85E496E0A9
:100E00000E942C0E8FED90E00E943F0EA1960FB62F
:100E1000F894DEBF0FBECDBFDF91CF911F91FF9041
:100E2000EF90DF90CF90BF90AF909F908F907F908A
:100E30006F905F904F9008956EEB80E090E00E947D
:100E4000701248E450E061E070E087E492E00E94B4
:100E50006612089580E090E00E945E128E3BB1F42D
:100E600019C0E82FF0E0EE0FFF1FEE0FFF1FEE0F8F
:100E7000FF1FE95BFD4F14821582168217829DE2E7
:100E800090839183928313828F5F01C080E08930C9
:100E900040F3089548E450E061E070E087E492E0B8
:100EA0000E944E120895CF93DF9300D0CDB7DEB7E6
:100EB00003C08091C6008A838091C0008823CCF350
:100EC0000E94610E03C08091C60089838091C0009A
:100ED0008823CCF30F900F90DF91CF91089580E19C
:100EE00090E00E94110E0E94CF0C0E94B2010E945D
:100EF000DE0D0E9410010E94800D80E014C0E82FDA
:100F0000F0E0EE0FFF1FEE0FFF1FEE0FFF1FE95B7C
:100F1000FD4F14821582168217829DE29083918381
:100F2000928313828F5F893050F380918400909177
:100F300085000E941C0F78948AB180648AB98AB1B6
:100F400080688AB90E942A070E9429060E945307D6
:100F500080E80E94B70C81E891E00E94A40C80EC2C
:100F60000E94B70C82E991E00E94A40C0895CF92F0
:100F7000DF92EF92FF920F931F93CF93DF93CDB742
:100F8000DEB7E1970FB6F894DEBF0FBECDBF8CEC95
:100F900090E00E943F0E03C08091C60089AB809113
:100FA000C0008823CCF38091C000882344F4809152
:100FB000C60089838BEB90E00E943F0E43C00E94E5
:100FC0007D0D6C0180E00E941C017C0181E00E948B
:100FD0001C018C014AE0BE016F5D7F4FC6010E947B
:100FE000270F4AE0BE016F5E7F4FC7010E94270FA7
:100FF0004AE0BE016F5F7F4FC8010E94270F83EA5E
:1010000091E00E94540ECE0181960E94540E8CE213
:101010000E94250ECE0141960E94540E8CE20E9441
:10102000250ECE0101960E94540E8AE00E94250EE4
:101030002FEF81EE94E0215080409040E1F700C016
:101040000000B1CFE1960FB6F894DEBF0FBECDBF62
:10105000DF91CF911F910F91FF90EF90DF90CF9094
:101060000895CF93DF930E949202DFEF80E00E9409
:101070001C01863521E0920728F08B3A924020F43B
:10108000C1E003C0C0E001C0C2E0DC17C9F0C1305C
:1010900051F018F0C23069F012C08BEA91E00E9462
:1010A0002C0EDC2F0DC08BEB91E00E942C0EDC2F60
:1010B00007C08DEC91E00E942C0EDC2F01C0DC2FCC
:1010C0008091C000882344F58091C6008333C9F025
:1010D00028F4813341F0823349F01EC08433A1F0FB
:1010E0008533B9F019C00E94910920C010923D02C9
:1010F00010923C020E949C020E9453070E9492029E
:101100000BC00E946E0512C00E94B7070E94920297
:101110000DC00E9497020AC08FEF90E722E0815035
:1011200090402040E1F700C00000A0CFDF91CF91B8
:101130000895EF92FF920F931F93CF93DF9300D008
:1011400000D01F92CDB7DEB78BB18F778BB98BB143
:101150008F7B8BB98091340290913502A091360239
:10116000B0913702892B8A2B8B2B39F410923C02D9
:101170000E949C020E943108C8C010923C0280E08C
:1011800020C0E82FF0E0EE0FFF1FEE0FFF1FEE0F65
:10119000FF1FE95BFD4F0481158126813781409156
:1011A0003402509135026091360270913702041773
:1011B00015072607370720F481E080933C0203C01F
:1011C0008F5F8930F0F240913C026091340270915F
:1011D000350280913602909137020E940B03F894F9
:1011E0000E945307789480913C02882309F47BC0C5
:1011F00086EB91E00E943F0E10E00EC00E94610E4F
:101200008D3051F08A3041F0E1E0F0E0EC0FFD1F4D
:10121000E10FF11D80831F5F133080F303C08091C5
:10122000C6008D838091C0008823CCF388E056C02F
:10123000882319F1A82F082E000CBB0B7D0191E02B
:10124000E91AF1089701220F331F220F331F220FD3
:10125000331F295B3D4FF9010481158126813781B8
:1012600040913402509135026091360270913702FC
:101270000417150726073707D0F040913402509124
:101280003502609136027091370298E08902F001D0
:101290001124E95BFD4F44835583668377838981FD
:1012A00080838A8181838B81828313821AC0AA0FF3
:1012B000BB1FAA0FBB1FAA0FBB1FA95BBD4FF70126
:1012C000EE0FFF1FEE0FFF1FEE0FFF1FE95BFD4F3D
:1012D00098E001900D929A95E1F7815088230CF0E7
:1012E000A7CF0E941C071092340210923502109270
:1012F00036021092370210923C020E949C02F8942F
:101300000E94530778940E9431080F900F900F901D
:101310000F900F90DF91CF911F910F91FF90EF9061
:1013200008952F923F924F925F926F927F928F9289
:101330009F92AF92BF92CF92DF92EF92FF920F9364
:101340001F93CF93DF93CDB7DEB7AC970FB6F8946A
:10135000DEBF0FBECDBF80912E0290912F02892B50
:1013600039F48DEC91E00E943F0E0E9431087FC25B
:101370001092400281E08093050110923D0210928C
:1013800041020E94B70C80E80E94B70C8DED91E0FD
:101390000E94A40C2FEF33ED40E321503040404039
:1013A000E1F700C0000080E80E94B70C8EEE91E0EB
:1013B0000E94A40C5FEF83ED90E351508040904079
:1013C000E1F700C0000081E00E94B70C80E80E94B5
:1013D000B70C8FEF91E00E94A40C30E012C0832F75
:1013E00090E0FC01EE0FFF1FE80FF91FEB59F94FDA
:1013F000E20FF11D10822F5F01C020E0233078F34F
:101400003F5F3830D0F387EC91E00E943F0EF894B4
:10141000109243021092440210924502109246022A
:101420007894C12CD12C760119A61AA61BA61CA64D
:1014300019A21AA21BA21CA200E010E0212C312C40
:1014400001C20E94AC0DF8944090430250904402B7
:101450006090450270904602789480912A02811132
:1014600009C080912802811105C08091290288233A
:1014700009F482C080912A02882321F010922A0266
:1014800090E011C080912802882321F01092280258
:1014900091E009C080912902882321F0109229024D
:1014A00092E001C09FEF80914102813009F064C059
:1014B00080910401981303C00E9490035DC01092B4
:1014C000400281E08093050110923F0210923E029B
:1014D000609134027091350280913602909137020A
:1014E0002AE0AE014F5F5F4F0E94320F80914002B1
:1014F0004AE0BE01675E7F4F90E00E94270F809117
:1015000005014AE0BE016F5E7F4F90E00E94270F09
:1015100089E391E00E94540ECE0101960E94540E80
:101520008CE20E94250ECE0149960E94540E8CE258
:101530000E94250ECE0141960E94540E8AE00E9420
:10154000250E8BB180688BB98BB18F7B8BB9809165
:101550000401833030F4E0910401F0E0EB59F94FDD
:10156000158AE1E8F0E080818A7F8083109285000F
:101570001092840010924102D301C20129A13AA124
:101580004BA15CA1821B930BA40BB50B8436910578
:10159000A105B10500F565C0E82F082E000CFF0B72
:1015A000DF0111979D01220F331FA20FB31FAB590B
:1015B000B94F9C919F01220F331FE20FF31FEB598C
:1015C000F94F908311969C911197918312969C915B
:1015D0009283815001C087E01816F4F2E5E6F6E048
:1015E0001082118212822EC0F801EE0FFF1FE15708
:1015F000FD4F808191819C013F7384E0989F812DF4
:10160000992711248370B701A601420F531F611D52
:10161000711D5301420130E2830E33E0931EA11C81
:10162000B11C84169506A606B70698F0833030F4F0
:10163000E82FF0E0EB59F94F81E080830F5F1F4FF7
:101640006A017B0180912E0290912F0208171907E1
:1016500058F285E696E00E944E0349A25AA26BA278
:101660007CA280912E0290912F022816390608F054
:101670005CC0F101EE0FFF1FE157FD4F80819181AA
:101680009C013F7384E0989F812D99271124482F56
:101690004370942E89A59AA5ABA5BCA5820F931F74
:1016A000A11DB11D8DA39EA3AFA3B8A70E943101B8
:1016B0009C01909141029130C1F1420E531E611C78
:1016C000711C2DA13EA14FA158A5421653066406D8
:1016D000750658F19092040181E0809341022093B5
:1016E00030023093310240933202509333028BB177
:1016F00080648BB94AE065E476E0892D90E00E9431
:10170000270F1092850010928400E1E8F0E08081BC
:10171000856080833FEF231A330A8DA19EA1AFA17C
:10172000B8A589A79AA7ABA7BCA780914102813031
:1017300009F088C06091840070918500CB01A0E021
:10174000B0E0880F991FAA1FBB1F880F991FAA1FFF
:10175000BB1F880F991FAA1FBB1F880F991FAA1FA5
:10176000BB1FBC01CD01660F771F881F991F660F35
:10177000771F881F991F20E83EE340E050E00E9459
:101780008F0E29013A010E943101880F991FA0E0B4
:10179000B0E084159505A605B70508F053C0E1E84B
:1017A000F0E080818A7F808310928500109284000F
:1017B0001092400281E08093050110923F02109246
:1017C0003E02609134027091350280913602909110
:1017D00037022AE0AE014F5F5F4F0E94320F8091C7
:1017E00040024AE0BE01675E7F4F90E00E94270FF3
:1017F000809105014AE0BE016F5E7F4F90E00E943C
:10180000270F89E391E00E94540ECE0101960E94B9
:10181000540E8CE20E94250ECE0149960E94540E71
:101820008CE20E94250ECE0141960E94540E8AE061
:101830000E94250E8BB180688BB98BB18F7B8BB9E1
:101840001092410280912E0290912F0228163906A3
:1018500020F080914102813029F480913D0288235B
:1018600009F4EFCD81E080933D020E949908AC9687
:101870000FB6F894DEBF0FBECDBFDF91CF911F91A1
:101880000F91FF90EF90DF90CF90BF90AF909F901F
:101890008F907F906F905F904F903F902F90089522
:1018A00084B1806284B984B1806184B984B1886074
:1018B00084B984B1846084B984B1826084B984B10C
:1018C000816084B9089595B19F7D95B988231CF4F2
:1018D00095B1906295B995B19F7E95B986FF03C089
:1018E00095B1906195B995B1977F95B985FF03C082
:1018F00095B1986095B995B19B7F95B984FF03C068
:1019000085B1846085B985B1826085B985E08A95A5
:10191000F1F7000085B18D7F85B985E08A95F1F7F3
:1019200000000895CF93C82F85B1816085B985B136
:101930008D7F85B98C2F0E94630C8C2F8295807FC0
:101940000E94630CCF910895CF93DF93EC0109C0FF
:1019500021960E94920C8FE391E00197F1F700C06D
:10196000000088818111F4CFDF91CF910895CF934A
:10197000C82F85B18E7F85B985B18D7F85B98C2FB4
:101980000E94630C8C2F8295807F0E94630C8FE3F2
:1019900091E00197F1F700C00000CF9108950E94F7
:1019A000500C2FEF81EE94E0215080409040E1F701
:1019B00000C0000085B18E7F85B985B18D7F85B966
:1019C00080E30E94630C8FE39CE90197F1F700C06C
:1019D000000080E30E94630C8FE193E00197F1F730
:1019E00000C0000080E30E94630C8FE193E0019748
:1019F000F1F700C0000088E20E94630C8FE391E0E1
:101A00000197F1F700C0000088E20E94B70C8FE355
:101A100091E00197F1F700C0000088E00E94B70C48
:101A20008FE391E00197F1F700C0000081E00E9490
:101A3000B70C8FE79EE30197F1F700C0000086E046
:101A40000E94B70C8FE391E00197F1F700C000000E
:101A50008CE00E94B70C8FE391E00197F1F700C092
:101A6000000008950E946F070E943108FDCF84EAAC
:101A70008093BC008091BC008823E4F786EA8093C1
:101A8000BB0084E88093BC008091BC008823E4F70D
:101A900082E38093BB0084E88093BC008091BC000B
:101AA0008823E4F784EA8093BC008091BC008823FB
:101AB000E4F787EA8093BB0084E88093BC008091C0
:101AC000BC008823E4F784EC8093BC008091BC00C8
:101AD0008823E4F72091BB0084E88093BC008091C8
:101AE000BC008823E4F78091BB0094E99093BC008C
:101AF00090E0982F8827822B08950E94370D089533
:101B000088E48093B80084EA8093BC008091BC0094
:101B10008823E4F786EA8093BB0084E88093BC00C6
:101B20008091BC008823E4F78DE28093BB0084E8B9
:101B30008093BC008091BC008823E4F788E0809308
:101B4000BB0084E88093BC008091BC008823E4F74C
:101B500084E98093BC0008950E94370D99231CF4FA
:101B60009195819591098233910514F41092420266
:101B70008536910514F180914102813021F08091E8
:101B8000410281111AC080913F028823B1F08091F7
:101B90004202811112C080913E0281110EC081E08B
:101BA0008093420210923F0280933E0280EC0E949A
:101BB000B70C80E192E00E94A40C089584B5826085
:101BC00084BD89EF87BD85B5836085BDEEE6F0E015
:101BD00080818260808308951F920F920FB60F92CA
:101BE00011248F939F93AF93BF9380914302909161
:101BF0004402A0914502B09146020196A11DB11D7B
:101C00008093430290934402A0934502B09346020E
:101C1000BF91AF919F918F910F900FBE0F901F902A
:101C200018959093C5008093C400E0ECF0E08081AB
:101C300082608083E1ECF0E0808188618083E2EC67
:101C4000F0E080818660808308959091C00095FFC8
:101C5000FCCF8093C6000895CF93DF93EC0103C0BF
:101C60000E94250E219688818111FACF8DE00E9475
:101C7000250E8AE00E94250EDF91CF910895CF9323
:101C8000DF93FC0103C00E94250EFE01EF012196A7
:101C900084918111F8CF8DE00E94250E8AE00E9488
:101CA000250EDF91CF910895CF93DF93EC0103C010
:101CB00021960E94250E88818111FACFDF91CF9164
:101CC00008958091C0008823E4F78091C6000895AC
:101CD000FF920F931F93CF93DF938C01F62EEA01AF
:101CE00004C00F5F1F4F0E94250EF80180818111F3
:101CF000F8CF8F2D0E94250E03C021960E94250E3D
:101D000088818111FACF8DE00E94250E8AE00E9421
:101D1000250EDF91CF911F910F91FF900895A1E2C1
:101D20001A2EAA1BBB1BFD010DC0AA1FBB1FEE1F55
:101D3000FF1FA217B307E407F50720F0A21BB30BA0
:101D4000E40BF50B661F771F881F991F1A9469F71C
:101D500060957095809590959B01AC01BD01CF0178
:101D600008950E94BC0EA59F900DB49F900DA49F56
:101D7000800D911D11240895A29FB001B39FC00151
:101D8000A39F700D811D1124911DB29F700D811DA7
:101D90001124911D08958F929F92AF92BF92CF927E
:101DA000DF92EF92FF92CF93DF93EC01688179810C
:101DB0008A819B81611571058105910521F464E299
:101DC00079ED8BE597E02DE133EF41E050E00E94A3
:101DD0007E1249015A019B01AC01A7EAB1E40E94BD
:101DE000B10E6B017C01ACEEB4EFA50194010E9431
:101DF000A012DC01CB018C0D9D1DAE1DBF1DB7FFD8
:101E000003C00197A109B04888839983AA83BB8343
:101E10009F77DF91CF91FF90EF90DF90CF90BF90B1
:101E2000AF909F908F9008950E94CB0E089580E010
:101E300091E00E94CB0E0895A0E0B0E080930001F5
:101E400090930101A0930201B09303010895BB2771
:101E50004A3031F4992322F4BDE2909581959F4F49
:101E60000C94640FBB272A3051F4992342F4BDE24D
:101E700090958095709561957F4F8F4F9F4F0C94F3
:101E8000420FBB27FA01A62F621771058105910544
:101E9000330B30FB66F0AA27660F771F881F991F48
:101EA000AA1FA21710F0A21B63953850A9F7A05DD6
:101EB000AA3308F0A95DA19336F7B111B19310824E
:101EC000CA010C94A411BB27FB015527AA27880F30
:101ED000991FAA1FA41710F0A41B83955051B9F79E
:101EE000A05DAA3308F0A95DA193009779F7B1111D
:101EF000B1931192CB010C94A411AEE0B0E0E3E8F1
:101F0000FFE00C94B3120D891E898F89988D26E00D
:101F10002C831A83098397FF02C080E090E8019721
:101F20009E838D83AE01455E5F4F698D7A8DCE01B4
:101F300001960E94AD0F4D815E8157FD0AC02F8131
:101F40003885421753070CF49A01F801E20FF31F8A
:101F500010822E96E4E00C94CF12ABE0B0E0E3EBFD
:101F6000FFE00C94A5126C017B018A01FC01178231
:101F70001682838181FFCCC1CE0101963C01F6011E
:101F80009381F70193FD859193FF81917F018823D0
:101F900009F4BAC1853239F493FD859193FF81919B
:101FA0007F01853229F4B60190E00E94B411E7CF99
:101FB000912C212C312CFFE1F315D8F08B3279F0E4
:101FC00038F4803279F08332A1F4232D20611DC0D2
:101FD0008D3261F0803369F4232D216016C0832D8A
:101FE0008260382EE32DE4603E2E2AC0F32DF86087
:101FF0001DC037FC2DC020ED280F2A3040F08E3256
:10200000B9F436FC81C1232D2064322E19C036FE6E
:1020100006C08AE0989E200D1124922E11C0EAE09D
:102020002E9E200D1124222EF32DF0623F2E08C08B
:102030008C3621F4832D8068382E02C0883641F416
:10204000F70193FD859193FF81917F018111B3CFBA
:10205000982F9F7D9554933028F40C5F1F4F9FE37A
:1020600099830DC0833631F0833771F0833509F0E1
:1020700059C021C0F801808189830E5F1F4F8824D9
:102080008394912C530113C02801F2E04F0E511C90
:10209000F801A080B18036FE03C0692D70E002C057
:1020A0006FEF7FEFC5010E9499114C018201F32D62
:1020B000FF773F2E16C0280122E0420E511CF80186
:1020C000A080B18036FE03C0692D70E002C06FEFC2
:1020D0007FEFC5010E948E114C01F32DF0683F2E59
:1020E000820133FC1BC0822D90E088169906B0F463
:1020F000B60180E290E00E94B4112A94F4CFF50179
:1021000037FC859137FE81915F01B60190E00E9416
:10211000B41121102A9421E0821A910881149104AB
:1021200071F7E8C0843611F0893641F5F80137FEC1
:1021300007C060817181828193810C5F1F4F08C04D
:1021400060817181072E000C880B990B0E5F1F4F69
:10215000F32DFF763F2E97FF09C0909580957095DF
:1021600061957F4F8F4F9F4FF0683F2E2AE030E000
:10217000A3010E94F011882E861845C0853731F4DE
:10218000232D2F7EB22E2AE030E025C0932D997F9B
:10219000B92E8F36C1F018F4883579F0B5C0803784
:1021A00019F0883721F0B0C0E92FE061BE2EB4FEEF
:1021B0000DC0FB2DF460BF2E09C034FE0AC0292FCC
:1021C0002660B22E06C028E030E005C020E130E0F5
:1021D00002C020E132E0F801B7FE07C060817181E2
:1021E000828193810C5F1F4F06C06081718180E006
:1021F00090E00E5F1F4FA3010E94F011882E8618F9
:10220000FB2DFF773F2E36FE0DC0232D2E7FA22EF5
:10221000891458F434FE0BC032FC09C0832D8E7E25
:10222000A82E05C0B82CA32C03C0B82C01C0B92C13
:10223000A4FE0FC0FE01E80DF11D8081803321F462
:102240009A2D997EA92E09C0A2FE06C0B394B3941C
:1022500004C08A2D867809F0B394A3FC11C0A0FEB7
:1022600006C0B21488F4280C922C9B180EC0B2142D
:1022700060F4B60180E290E00E94B411B394F7CF0D
:10228000B21418F42B1802C0982C212CA4FE10C0F4
:10229000B60180E390E00E94B411A2FE17C0A1FC39
:1022A00003C088E790E002C088E590E0B6010CC06A
:1022B0008A2D867859F0A1FE02C08BE201C080E22F
:1022C000A7FC8DE2B60190E00E94B411891438F4A5
:1022D000B60180E390E00E94B4119A94F7CF8A94FB
:1022E000F301E80DF11D8081B60190E00E94B41168
:1022F0008110F5CF222009F442CEB60180E290E0B1
:102300000E94B4112A94F6CFF6018681978102C00B
:102310008FEF9FEF2B96E2E10C94C112FC01059028
:10232000615070400110D8F7809590958E0F9F1FD7
:102330000895FC016150704001900110D8F780951C
:1023400090958E0F9F1F0895DC01FC01672F7191FE
:102350007723E1F7329704C07C916D93708362918B
:10236000AE17BF07C8F308950F931F93CF93DF9362
:10237000FB01238121FD03C08FEF9FEF2CC022FFC3
:1023800016C046815781248135814217530744F492
:10239000A081B1819D012F5F3F4F318320838C93BA
:1023A000268137812F5F3F4F3783268314C08B01EF
:1023B000EC01FB010084F185E02D0995892BE1F604
:1023C000D80116968D919C911797019617969C931C
:1023D0008E931697CE01DF91CF911F910F910895A3
:1023E000FA01AA27283051F1203181F1E8946F9346
:1023F0006E7F6E5F7F4F8F4F9F4FAF4FB1E03ED0EC
:10240000B4E03CD0670F781F891F9A1FA11D680F89
:10241000791F8A1F911DA11D6A0F711D811D911DBC
:10242000A11D20D009F468943F912AE0269F112431
:102430003019305D3193DEF6CF010895462F477095
:10244000405D4193B3E00FD0C9F7F6CF462F4F70F0
:10245000405D4A3318F0495D31FD4052419302D04E
:10246000A9F7EACFB4E0A6959795879577956795F4
:10247000BA95C9F700976105710508959B01AC01F4
:102480000A2E06945795479537952795BA95C9F71B
:10249000620F731F841F951FA01D0895DC01CB01DF
:1024A000FC01F999FECF06C0F2BDE1BDF89A319664
:1024B00000B40D9241505040B8F70895F999FECFFD
:1024C00092BD81BDF89A992780B50895DC01CB01B2
:1024D00003C02D910E94711241505040D0F70895D1
:1024E000262FF999FECF1FBA92BD81BD20BD0FB630
:1024F000F894FA9AF99A0FBE01960895052E97FB63
:102500001EF400940E94951257FD07D00E948F0E72
:1025100007FC03D04EF40C949512509540953095DD
:1025200021953F4F4F4F5F4F08959095809570953F
:1025300061957F4F8F4F9F4F0895B7FF0C94B10E59
:102540000E94B10E821B930B08952F923F924F92DF
:102550005F926F927F928F929F92AF92BF92CF9233
:10256000DF92EF92FF920F931F93CF93DF93CDB73C
:10257000DEB7CA1BDB0B0FB6F894DEBF0FBECDBFB4
:1025800009942A88398848885F846E847D848C8485
:102590009B84AA84B984C884DF80EE80FD800C818E
:1025A0001B81AA81B981CE0FD11D0FB6F894DEBF71
:0C25B0000FBECDBFED010895F894FFCFE1
:1025BC0001000000FF0153434F52455F524F573A01
:1025CC0025753A25733A2573005072657373206133
:1025DC006E79206B65792E2E0047414D455F4F5625
:1025EC0045523A25733A2575004855443A00504FE8
:1025FC005745522D555020524541445921002052E7
:10260C0065636F7264696E672E2E2E202020004C3D
:10261C003D6C6674204D3D6D696420523D727400B2
:10262C005265636F7264696E6720646F6E652120FA
:10263C000020546865204265617420446F776E21D8
:10264C002000507265737320746F20737461727400
:10265C0021200053454E534F523A004449464649B7
:10266C0043554C54593A45415359004449464649FF
:10267C0043554C54593A4D454449554D00444946EF
:10268C00464943554C54593A484152440020202065
:10269C002052656164792E2E2E20202020002033BC
:1026AC002E2E2E20322E2E2E20312E2E20200020AB
:1026BC0020474F2120474F2120474F212020200029
:1026CC0020202A2A20325820414354495645202A9A
:0626DC002A20202000006E
:00000001FF
